:100000000C94CD010C9464090C9416020C94160205
:100010000C9416020C9416020C9416020C94160200
:100020000C9416020C9416020C94B8200C948C219B
:100030000C94E4150C9416020C9416020C941602FF
:100040000C9416020C9416020C9416020C941602D0
:100050000C9416020C942F160C9416020C94160293
:100060000C9416020C9416020C9416020C941602B0
:100070000C9416020C9416020C9416020C941602A0
:100080000C9416020C9416020C9416020C94160290
:100090000C9416020C9416020C9416020C94160280
:1000A0000C9416020C9416020C94160235001E00D5
:1000B0001F002000210022002B0014001A0008005D
:1000C00015001700390004001600070009000A0097
:1000D000E1001D001B00060019000500E0002900DA
:1000E000E200E3002C0001510000000000000000CD
:1000F0002A002800230024002500260027002D00C8
:100100001C0018000C00120013002E000B000D0044
:100110000E000F00330034000500110010003600FF
:100120003700380002512C00E700E600E400E5004B
:1001300028002A0000000000000000003B003A00F8
:100140003B003C003D003E00290001000100010091
:1001500001000100010001000100010001002F0069
:10016000010001000100010001002602E000290059
:10017000E200E300010001000000000000000000B8
:100180004C0001003F004000410042004300440099
:10019000010024002500260001003100300021006C
:1001A000220023000100010027021E001F00200082
:1001B00001000100010027005000520051004F00D3
:1001C00001004C0000000000000000002900460073
:1001D000470048000100010001004E0052004B00A2
:1001E00049004A000100500051004F0001004D003D
:1001F0000100010001000100010001000100A80050
:10020000AA00A90001000100000000000000000099
:100210004C0001000100010001000100010001008B
:1002200001000100010001000100010001000100C6
:1002300001000100010001000100010001000100B6
:1002400001000100010001000100010001000100A6
:1002500001004C000000000000000000040330001A
:1002600000000C03570069006E00670042000000A8
:1002700016035A006500670061006C007200790087
:1002800061006E00670000000403090409023B00DE
:10029000020100A0FA090400000103010100092184
:1002A000110100012240000705810308000A09042A
:1002B0000100010300000009211101000122810059
:1002C0000705820320000A1201100100000008ED5A
:1002D000FE666601000102030105010902A1018514
:1002E000020901A10005091901290515002501953B
:1002F0000575018102950175038101050109300928
:10030000311581257F9502750881060938158125EB
:100310007F950175088106050C0A38021581257F35
:10032000950175088106C0C005010980A1018503FA
:1003300019012AB700150126B70095017510810033
:10034000C0050C0901A101850419012AA0021501AB
:1003500026A002950175108100C005010906A101C2
:10036000050719E029E715002501950875018102A7
:100370009501750881010507190029FF150026FF61
:100380000095067508810005081901290595057570
:10039000019102950175039101C011241FBECFEF99
:1003A000DAE0DEBFCDBF04B603FE29C0809186022D
:1003B00090918702A0918802B09189028730904B7A
:1003C000A740B04BE1F4109286021092870210927F
:1003D00088021092890214BE84B7877F84BF0FB64B
:1003E000F894A895809160008861809360001092D5
:1003F00060000FBEE0917502F0917602099411E061
:10040000A0E0B1E0E0EBF7E402C005900D92AC395A
:10041000B107D9F722E0ACE9B1E001C01D92A638DE
:10042000B207E1F70E94F41D0C94AE230C94000077
:100430000C94DE0481E0089581E008950C941A0282
:1004400008950C9420021F93CF93DF9300D000D027
:100450000F92CDB7DEB749835A836B833091C101C8
:1004600089819A8131111DC06623B9F02223A9F038
:100470000E944413182F682F89819A810E94ED12DF
:1004800069817A81812F0F900F900F900F900F90BC
:10049000DF91CF911F910C94D3020E941B13182F50
:1004A000EFCF0E94441369817A81EDCFFC01262FA2
:1004B000408151816281738184810C942302CF93A6
:1004C000DF93EC0160E00E945602BE01DF91CF9104
:1004D0000C9421020E948814811102C00E943615DA
:1004E0000C9418020C94E00408950E94540E0E948B
:1004F00074022FEF84E39CE0215080409040E1F7AC
:1005000000C000000C9453160F931F93CF93DF93FA
:10051000EC0161E00E9456028C01BE010E941E02A5
:10052000882329F1BE01C8010E9417078823F9F02A
:10053000BE01C8010E9469078823C9F0BE01C80135
:100540000E948C08882399F08A81882339F001154C
:100550008CE5180751F00F3D1C4579F0CE01DF9175
:10056000CF911F910F910C941C020E94750280E0A4
:10057000DF91CF911F910F9108950E943615F7CF0B
:1005800008950C94C00281E008950C94C302CF93A7
:10059000C82F0E94C1028C2FCF910C94C50290E00D
:1005A00080E008950895972F70E026E0929F600DF7
:1005B000711D1124FB0198E4899FE00DF11D1124A8
:1005C000EE0FFF1FE455FF4F859194910895FC01B4
:1005D000EE0FFF1FE45AFD4F859194910895CF933C
:1005E000DF930E94D3020E940404EC01811520E5F0
:1005F000920708F042C0811530E4930708F0BDC0AF
:10060000883E910528F5803E910508F09DC0883A06
:10061000910588F4853A910508F08FC081309105E5
:1006200009F492C0009709F48FC0049708F08CC0B9
:10063000D0E0C0E089C08F3B910508F489C0805CA0
:100640009109C03CD105A0F30E94E702EC017CC0F7
:100650008115904250F4C11581E0D80708F074C0AC
:10066000C03FD10528F3D0656FC0C11590E3D9070D
:1006700008F079C0CE019F70E7CF811525E592077C
:1006800058F5811534E5930708F0A6C0811542E5B9
:10069000940750F4C11581E5D80708F471C0DC2F28
:1006A000CC27C16FD06A50C0982F969596959E0121
:1006B00023703327C115D34508F07FC0C1E0D0E0D7
:1006C00002C0CC0FDD1F2A95E2F720E2929FC00105
:1006D0001124C82BD92B6FC0C11589E5D807A8F400
:1006E000C11598E5D90708F07CC0C11526E5D207E9
:1006F00008F09ECF8C2F0E949B04C82FD0E0DC2FE7
:10070000CC27CC27DF71D0621FC0C1153AE5D307D3
:1007100008F46CC0CE0190568115904208F088CF45
:100720008D2F8F710E949B0490E0982F8827882737
:100730009F719C012C2BE901E6CFC55AD0E0C45B28
:10074000DE4FC881D0E0D064CE01DF91CF91089513
:10075000C85AD0E0CC0FDD1FC25EDE4F0990D881B1
:10076000C02DD464F1CFCE019927D3FF03C0EC0193
:10077000D86CEACFEC01D06CE7CFDF70D06AE4CF61
:10078000CE01E4E096958795EA95E1F783702C2FEA
:1007900026952695237090E2299F90011124382BED
:1007A0008C2F8370C1E0D0E002C0CC0FDD1F8A9592
:1007B000E2F7C22BD32BDC68C7CFC1E0D0E002C088
:1007C000CC0FDD1F2A95E2F730E2939FC001112480
:1007D000C82BD92BDA68B8CFD82FCC27C46FD06AF2
:1007E000B3CFDC2FCC27C06FD06AAECF8C2F8F70E9
:1007F0000E949B0434E0D695C7953A95E1F7CF70F7
:100800009C2FEC01D069A0CF82389105B1F1B0F4F2
:100810008133910509F475C048F48932910509F4D2
:1008200069C08A32910509F473C008958533910532
:1008300009F459C08933910501F10895833E91056A
:10084000A9F138F4803E9105F9F0823E910549F115
:100850000895863E9105A9F1873E9105C9F1843E30
:10086000910519F52091780221FF1FC08091770230
:1008700084FD14C087EE90E00895209177022370E4
:10088000A1F080EE90E008952091770220FD47C00E
:100890003091780230FF09C024FF44C090E080E02E
:1008A00004C02091770222FDF7CF089520917702AE
:1008B00022FD3BC03091780230FDE3CF24FFF5CF1D
:1008C000EDCF2091770223FFF0CF24FDE7CFD2CFE9
:1008D0002091770223FD2CC03091780231FFEECFBA
:1008E00084EE90E008952091770225FFDECF89E223
:1008F00090E008952091770225FFD7CF85E390E01F
:1009000008952091770226FFD0CF8AE290E00895E3
:100910002091770226FFC9CF81E390E0089589E313
:1009200090E0089583EE90E0089582EE90E00895BF
:1009300086EE90E008959091770292FF06C0282FEE
:1009400028712830F9F4877F846093FF06C0282F30
:1009500028712831F1F4877E84612091780220FF8C
:1009600006C0382F38713830D9F4877F816021FF75
:1009700006C0282F28712831D1F4877E816194FD2B
:10098000877E0895282F24712430F9F68B7F8860A4
:10099000DCCF282F2471243101F78B7E8861DDCFD5
:1009A000382F3171313019F78E7F8860E0CF282FD2
:1009B0002171213121F78E7E8861E1CF089508955C
:1009C0000C94DF04E82FF0E0ED59FD4F808108958D
:1009D000089580EA8A95F1F70895F894E82FE29552
:1009E000EF70F0E031A1282F2F7081E090E001C07E
:1009F000880F2A95EAF7982F9095932391A392A1B7
:100A0000892B82A37894089508950E9447068091C7
:100A100000018091000196E0811190E090937002B6
:100A200086E0891B80936F0286EF0E94ED0487EFBA
:100A30000E94ED0481E30E94ED0483E30E94ED0433
:100A400082E30E94ED0486E30E94ED0484E90E94A3
:100A5000ED0486E60E94ED0487E90E94ED0486EC31
:100A60000E94ED0484E30E94ED0485E30E94ED04FE
:100A7000E7E5F2E0A3E6B2E011921D9282E0E336F0
:100A8000F807D1F786E00E94EF050E946A020C94F5
:100A900051060E942606882309F180916F0290E09A
:100AA0008D599D4F0E946406811115C080919C0153
:100AB0008F5F80939C01863060F0E0916F02F0E0E0
:100AC000ED59FD4F90E080E011920196863091053E
:100AD000D9F70C94720210929C01FBCF80917002A6
:100AE00090E08D599D4F0E947D060C940405CF9295
:100AF000DF92EF92FF920F931F93CF93DF93C5E5A1
:100B0000D1E007E512E0D12CEE24E394F12C899199
:100B1000F894E82FE295EF70F0E021A18F70A70123
:100B200002C0440F551F8A95E2F7CA01922F982BF5
:100B300091A392A18095892382A378940E94E904CD
:100B4000EFE4F1E030E020E0C12C4191A42FA29528
:100B5000AF70B0E090968C9190E04F7002C0959588
:100B600087954A95E2F780FD36C08E2D022E01C092
:100B7000880F0A94EAF7C82A2F5F3F4F26303105C5
:100B800021F7FE01319780810E94ED04F8018081F8
:100B9000C81619F1C08281E0D82A0F5F1F4FF1E01B
:100BA000CB35DF0709F0B3CF6091700270E06D596B
:100BB0007D4F2D2D46E087E592E00E94F0050E94D2
:100BC00049058D2DDF91CF911F910F91FF90EF90EF
:100BD000DF90CF90089580E0CECF80E0DDCF089504
:100BE000FF920F931F93CF93DF93F82E092F162FA9
:100BF000D72FC42F222349F081E080939F010E94C8
:100C0000141690939E0180939D0180919F018823EB
:100C1000A1F080919D0190919E010E94201606975F
:100C200060F0EF2DF02FA12FBD2FCE0FDF2FD11DA4
:100C3000EC17FD0741F410929F01DF91CF911F91B6
:100C40000F91FF90089581918D93F2CF8091A00133
:100C5000811111C08091D80080618093D8008AE111
:100C60008A95F1F700C09091D900892F817090FF8B
:100C700082E08093A00181E09091A001913009F081
:100C800080E008950E94260691E0892708950E9439
:100C90004206809300010E94260681110C9458069A
:100CA00008950E942606811102C00C945E060895E4
:100CB00061E070E081E091E00C94150961E070E082
:100CC00081E091E00C941C09CF93DF93D82FC92FBA
:100CD0000E94B609009779F4ED2FFC2FDC01AE5588
:100CE000BE4F2C912193019686309105B9F781E092
:100CF000DF91CF91089580E0FBCF30E020E0FC0150
:100D00004191CF01F901EE55FE4F40832F5F3F4FD8
:100D100026303105A1F70895AF92BF92CF92DF92AE
:100D2000EF92FF920F931F93CF93DF937C015B01B0
:100D3000C42FD22FFC0182818823F9F04093AA01AD
:100D40000E9414169093A9018093A80180E28C0F51
:100D5000883008F061C0C77081E001C0880FCA9573
:100D6000EAF7DF91CF911F910F91FF90EF90DF9005
:100D7000CF90BF90AF900C94D80B1091AA01141390
:100D800040C08091A8019091A9010E9420166C0199
:100D9000B701C5010E94CA10C816D90690F5C0E275
:100DA000CD0F1D17B9F080E2810F883040F4177025
:100DB00081E001C0880F1A95EAF70E94DF0BC83066
:100DC00048F481E09D2F977001C0880F9A95EAF74B
:100DD0000E94D80B802F0E94C50BC830E8F4D77052
:100DE00081E001C0880FDA95EAF7DF91CF911F917A
:100DF0000F91FF90EF90DF90CF90BF90AF900C9449
:100E0000DF0B80E28C0F883038F4C77081E001C0BE
:100E1000880FCA95EAF7E9CFDF91CF911F910F9123
:100E2000FF90EF90DF90CF90BF90AF9008950F9319
:100E30009C01CB01243F4CE5340759F1A8F4293D2E
:100E4000FCE53F0701F12A3D4CE53407D1F1283D8F
:100E50003C4591F406E221EE41EE68ED7CE50E940E
:100E60008C0680E00F910895263FFCE53F07E9F0EE
:100E7000B0F0273F3C45F9F0FC018281882339F12D
:100E80001092AA01EFCF07E225EE45EE69ED7CE571
:100E9000E6CF06E221EE40EE64EF7CE5E0CF07E22C
:100EA00025EE44EE65EF7CE5DACF06E221EE42EE78
:100EB00066EF7CE5D4CF07E225EE46EE67EF7CE5F2
:100EC000CECF08E221E045EE6AED7CE5C8CF81E0B7
:100ED000C9CFCF93DF93EC01FB018281882309F412
:100EE00019C1C230FCE5DF07C0F1C6319CE5D90766
:100EF00030F09E012B5F3C452930310570F50E9492
:100F0000A5149093780280937702C031ECE5DE0758
:100F100009F4CFC008F05BC0C8308CE5D80709F4ED
:100F2000B6C088F5C430ECE5DE0709F4A8C0C0F40B
:100F3000C2308CE5D80709F49CC0809177028260AA
:100F4000C330DC4509F498C0809177029091780213
:100F50000E94B3140E94540E80E0DF91CF91089557
:100F6000809177028061C630ECE5DE0709F484C029
:100F7000809177028860C730DC4508F47DC080919D
:100F80007702806279C0CC308CE5D80709F489C03B
:100F900070F4809177028C60CA30ECE5DE0709F4CA
:100FA0006BC008F478C0809177028E7F65C0CE3028
:100FB0008CE5D80709F479C0809177028B7FCF3018
:100FC000DC4508F459C0809177028F7E55C0CC3F34
:100FD000ECE5DE0709F457C030F5C3318CE5D807DE
:100FE00009F46FC078F4C131ECE5DE0709F465C09F
:100FF000C231DC4509F0A8CF0E94540E80917702DF
:101000008F773AC0C5318CE5D80709F462C008F47F
:1010100076C0809178028160CB3FDC4509F094CFA7
:101020008093780291CFC115FDE5DF0709F44DC02B
:1010300088F4809178028D7FCE3F9CE5D90781F3BB
:10104000809178028E7FCF3FDC4550F3809178020B
:101050008360E6CFC230FDE5DF0709F459C008F42C
:1010600044C080E0C330DD4509F06ECF0E943815E2
:101070006BCF8091770281608093770265CF8091FA
:1010800077028460F9CF809178028260C9CF809125
:1010900077028064F1CF0E94540E809177028068BD
:1010A000EBCF809177028D7FE7CF80917702877FAA
:1010B000E3CF809177028F7DDFCF809177028F7BA6
:1010C000DBCF80917702837FD7CF809178028C7FAE
:1010D000A7CF8091770282FB992790F921E0922790
:1010E00090FB82F990FB83F9C7CF80917802982F0B
:1010F000909591708E7F892B90FB81F991CF0E9402
:10110000540E90917702892F97FB87F98058B4CFBE
:1011100081E0ACCF81E021CFCF93DF93EB0186312B
:101120009C4511F50E94D9139A81992399F08A7AE6
:1011300091E009F490E09093AB01811109C089E23C
:101140000E94B4130E94251480E0DF91CF9108958E
:1011500085E3F6CF8091AB01811104C089E20E9442
:10116000BB13F0CF85E3FBCF81E0EFCF8EE1489B4F
:1011700002C08150E1F7489BFECF0895589880E265
:101180008A95F1F7589A0895FC013BE03A95F1F7FA
:1011900098E020E080E031E040E14A95F1F7880FE7
:1011A000489B02C08160232742E04A95F1F7000086
:1011B00040E14A95F1F7915079F790E19A95F1F76E
:1011C00099B132E03A95F1F7000040E14A95F1F724
:1011D000917092272081920F90830895EF92FF9251
:1011E0000F931F93CF93DF930F92CDB7DEB7198282
:1011F0008C017C01E60EF11C0E151F0561F481E0E7
:101200009981911180E00F90DF91CF911F910F9103
:10121000FF90EF9008950E94B608CE0101960E94BB
:10122000C408F80181938F01E7CF9093AD018093BB
:10123000AC01509A589A08959093AD018093AC01F7
:101240005098589AE89AE9E6F0E080818C7F808394
:1012500008956150770B91E001C0990F6A95EAF704
:1012600020E031E0911108C0222391F0589A80E2E9
:101270008A95F1F758980895492F482339F0589ADC
:10128000232740E24A95F1F79695ECCF5898F9CF8D
:101290005898EDCFFF920F931F93CF93DF93EC01FC
:1012A0008C01060F111DC017D10731F4DF91CF91CA
:1012B0001F910F91FF900895F9900E94BE0868E079
:1012C0008F2D0E942909EFCF1F920F920FB60F9218
:1012D00011242F933F934F935F936F937F938F933B
:1012E0009F93AF93BF93CF93DF93EF93FF93589860
:1012F000509AC091AC01D091AD016D81662321F06F
:101300008E819F810E944A090E94BE0880E18A95D1
:10131000F1F758985098589A80E18A95F1F76A81C8
:10132000662309F18B819C810E94EE08E881F98196
:10133000882311F088E001C082E080830E94B60813
:10134000FF91EF91DF91CF91BF91AF919F918F91DD
:101350007F916F915F914F913F912F910F900FBEB1
:101360000F901F901895E881F981E4CFCF93DF9318
:10137000C091AC01D091AD01F894509A589885E095
:101380008A95F1F700005098589A80E28A95F1F713
:10139000489B0CC0509A589AE881F98181E080837B
:1013A000789481E090E0DF91CF9108956D8166237C
:1013B00081F08E819F810E94EE0881110AC0509AAF
:1013C000589AE881F98182E08083789482E090E005
:1013D000EACF0E94B60880E28A95F1F75898509AB1
:1013E00080E18A95F1F76A81662321F08B819C81E7
:1013F0000E944A090E94BE08E881F981108278940F
:1014000090E080E0D0CF9093B3018093B201089533
:10141000E091B201F091B301309721F00190F08199
:10142000E02D099480E00895E091B201F091B301BC
:10143000309721F00280F381E02D09940895E09126
:10144000B201F091B301309739F022E0DC012C9326
:101450000480F581E02D099408952091B001309128
:10146000B1012817390771F09093B1018093B00151
:10147000E091B201F091B301309721F00680F7813D
:10148000E02D099408952091AE013091AF01281705
:10149000390771F09093AF018093AE01E091B201F2
:1014A000F091B301309721F00084F185E02D09948B
:1014B000089585B7806885BF85B7806885BF089522
:1014C000089508950C94600A08950C94640A0E948B
:1014D000590A0E94610A0C94620A0C942606089527
:1014E00008950E940B160E9405050E94D6160C94C2
:1014F000650ABF92CF92DF92EF92FF920F931F93F4
:10150000CF93DF93CDB7DEB72A970FB6F894DEBF3F
:101510000FBECDBF0E946F0A0E94700A0E9477051D
:101520000E946D0A882309F45EC085EBC82E81E015
:10153000D82E10E000E0B02E802F0E94E204E82EAA
:10154000F601F1906F01F81609F447C080913C0252
:1015500081FD0E94E8049F2D9E2580E0FF24F394E6
:10156000292F2F21B1F18E83BF82EF2081E009F472
:1015700080E088870E9414168160782F9A87898777
:101580004E815F8168858A850E94140BF801EB54B7
:10159000FE4F8081F826F0820E9484190E94080A7A
:1015A0009091B401891781F10E94080A8093B401D7
:1015B0002A960FB6F894DEBF0FBECDBFDF91CF9154
:1015C0001F910F91FF90EF90DF90CF90BF900C9400
:1015D000C7028F5FFF0C863019F60F5F1F4F0C306C
:1015E000110509F0A8CF8FEF89838A831B820E949F
:1015F00014168160782F9D838C8349815A816B8179
:101600008D810E94140BC8CF2A960FB6F894DEBFC6
:101610000FBECDBFDF91CF911F910F91FF90EF9043
:10162000DF90CF90BF900895CF93DF93CDB7DEB713
:101630002B970FB6F894DEBF0FBECDBF4F835887F0
:1016400069877A878B871E821D8285E0FE01379627
:10165000DE01119601900D928A95E1F749815A8138
:101660006B817C818D819E812B960FB6F894DEBFB5
:101670000FBECDBFDF91CF910C94CD10FC018081C6
:1016800091810C948613CF93C82F882309F44CC002
:101690008CEF8C0F813AC8F48C2F0E94091C8111A9
:1016A00043C06C2F8091090190910A010E944F154F
:1016B000882329F08C2F0E94BB130E9425148C2FA5
:1016C0000E94B413CF910C94251480E28C0F8830C3
:1016D00048F4C77081E001C0880FCA95EAF70E94FC
:1016E000DC13F0CFEBE5EC0FE33040F4F0E0E15732
:1016F000FE4F808190E0CF910C942D0AE8E5EC0F2D
:10170000E73150F4F0E0EE0FFF1FEF59FE4F8081FC
:101710009181CF910C94430AC03F30F08C2F0E94EE
:101720007E18CF910C946919CF910895882361F1A7
:101730009CEF980F913A20F40E94BB130C9425144F
:1017400090E2980F983050F4877091E001C0990FA3
:101750008A95EAF7892F0E94E213F0CF9BE5980F54
:10176000933020F490E080E00C942D0A98E5980FD7
:10177000973120F490E080E00C94430A803F20F001
:101780000E94E6180C9469190895CF93C82F0E94FF
:10179000430BC93349F42FEF87EE93E0215080408B
:1017A0009040E1F700C000008C2FCF910C94960B75
:1017B000882321F00E94DC130C94251408958823BB
:1017C00021F00E94E2130C9425140895BF92CF9249
:1017D000DF92EF92FF920F931F93CF93DF936C01F1
:1017E000D62FC72FFC01058102950F7012811111B0
:1017F0000E94F9130E94D213E82E882391F011233E
:10180000D1F08C2F807F803421F080E28D0F8830E2
:1018100090F082E00E9470140E94D21391E0E82EB2
:10182000E926BC2EB2949FE0B922EB2DF0E0E05502
:10183000FC4D0C945223E12CF4CF0C2F0F70C07F81
:1018400011F00295007F1123A9F0002359F080E2E6
:101850008D0F883010F0D11109C0802F0E94DC1349
:101860000E9425148D2F0E94430B14C0802F0E94CC
:10187000EC13F6CF8D2F0E94960B002359F080E2D7
:101880008D0F883010F0D1112CC0802F0E94E213F0
:101890000E9425142B2D2850330B2430310520F4C1
:1018A0000E94080A0E94C702EE2009F49EC10E940D
:1018B000CE1380FD9AC1F60112820E94C8130E94C5
:1018C0005112C6010E94160E0E94C813DF91CF91DB
:1018D0001F910F91FF90EF90DF90CF90BF900C94ED
:1018E0007212802F0E94F213D3CFFC2FFF70FF2EB5
:1018F000C07FC03219F0F29480EFF822DD2369F046
:10190000D13049F1112391F1002351F1F601858184
:1019100080FFA8CF8F70858323C0112381F0011130
:1019200006C00E940C148F290E94D80BB3CF01303F
:10193000C1F70E940C148F290E941214ABCF011121
:1019400006C00E941B148F2D0E94DF0BA3CF013015
:1019500009F4A0CFF6CF112329F0063008F09ACF72
:101960008F2DE2CF053008F095CFEDCF002359F34E
:10197000D93349F4FFEF27EE33E0F15020403040F7
:10198000E1F700C000008D2F0E94960B83CF8C2FB3
:1019900086958695837069F0813009F07BCF8D2F15
:1019A0009C2F9370111102C090E080E00E94430AC6
:1019B00071CF8D2F9C2F9370111102C090E080E0A9
:1019C0000E942D0A67CF8D2F112329F00E947E18C7
:1019D0000E9469195FCF0E94E618FACF8C2F83709E
:1019E00009F041C0111156CF4D2F429546954770D1
:1019F000440F440F0D2F0F7010E030E020E0042E54
:101A000004C0000F111F221F331F0A94D2F760E099
:101A100070E0CB01D4FF0FC06FE070E080E090E099
:101A200004C0660F771F881F991F4A95D2F76095EB
:101A3000709580959095C695C695C370602B712B57
:101A4000822B932BC23049F058F4C13019F00E9418
:101A5000031220CF0E94F1111DCF0E9415121ACF40
:101A60000E94EF1117CF8695112311F08C2F8170F2
:101A7000882309F40FCF4D2F429546954770440FA8
:101A8000440F0D2F0F7010E030E020E0042E04C052
:101A9000000F111F221F331F0A94D2F760E070E07D
:101AA000CB01D4FF0FC06FE070E080E090E004C095
:101AB000660F771F881F991F4A95D2F7609570951A
:101AC00080959095C695C695C370602B712B822B1F
:101AD000932BC23049F058F4C13019F00E94C8125B
:101AE000D9CE0E94B612D6CE0E94DA12D3CE0E9470
:101AF0002B12D0CECF70112329F08C2F0E945112BF
:101B00008D2F12CF8D2F0E94DF0B8C2F0E9472120F
:101B1000C1CED23F89F160F4D03FC9F0D13F29F165
:101B2000112309F442C001119DCE8C2F8F7121C069
:101B3000D33F39F1D43FA1F7112369F1CF718C2F35
:101B40000E94511263E08C2F0E945B14A3CE1123DC
:101B500041F0053008F09ECE8C2F8F710E949512B7
:101B600099CE063008F096CEF7CF8C2F8F711123C7
:101B700069F20E9451128ECE8C2F8F711123C9F3FE
:101B8000C5CF112329F08C2F8F710E943C1282CE79
:101B90000E9437127FCE81E00E947014023008F458
:101BA00079CE82E00E94701475CE002359F0D933AB
:101BB00009F0E9CE8FEF97EEE3E081509040E040EE
:101BC000E1F7DFCE8C2F8F71A1CF4C2F4F706D2F8F
:101BD000C6010E94CF020E9467115CCE4C2F4F704D
:101BE0006D2FC6010E94D20255CEDF91CF911F9179
:101BF0000F91FF90EF90DF90CF90BF9008950F93DB
:101C00001F93CF93DF93EC01688179818A810E94D1
:101C100090138C010E94EC120E94EE11B801CE01CB
:101C2000DF91CF911F910F910C94E60BCF93DF932F
:101C3000EC018B819C81892B29F0888199818923F2
:101C40008F3F59F4DF91CF910895CE010E94FF0D8F
:101C5000CE01DF91CF910C945F02CE010E948402ED
:101C60008111F3CF0E94D213882361F38A818823E4
:101C700049F382E0DF91CF910C9470140E94F91324
:101C80000E9409140E9425140E94901A0E9469194A
:101C900090E080E00E942D0A90E080E00C94430ADE
:101CA0000E94C2130C943E0E0E94E9130C94500E35
:101CB000E92FE295EF70E250EE3070F4F0E0E0547E
:101CC000FC4D0C945223803F19F020F4883E20F400
:101CD00081E00895843FE1F380E00895883EC0F3F9
:101CE000813FD1F7F5CF93FB882780F908950E94B3
:101CF00086130C94580ECF93DF9300D000D00F9230
:101D0000CDB7DEB70F900F900F900F900F90DF912F
:101D1000CF910895CF93DF9300D000D000D0CDB7FE
:101D2000DEB726960FB6F894DEBF0FBECDBFDF91AB
:101D3000CF9108951F93CF93DF93C091C20116E016
:101D40008091C3018C1304C0DF91CF911F9108953E
:101D5000D0E01C9FF0011D9FF00D1124EC53FE4FAD
:101D60004081518162817381848195810E948A0EB4
:101D70002196C770E5CF4091F4015091F501609133
:101D8000F6017091F7018091F8019091F9010C949E
:101D90008A0E1F93CF93DF938091F901807FA9F47E
:101DA0008091F601882389F08091C201C091C3011E
:101DB0006091F4017091F501A091F701B091F801E3
:101DC000D62FD72316E0C81304C0DF91CF911F91FF
:101DD000089590E0109711F0DF3F19F40196877095
:101DE000F2CF189F9001199F300D1124F901EC5387
:101DF000FE4F41814713F2CF40814613EFCF42811E
:101E00004111ECCF438154814A1B5B0B483C510587
:101E100028F78091F9018F7080618093F901F901B1
:101E2000E753FE4F80818F708061808384EF91E063
:101E30000E94160EDF91CF911F910C949A0EAF92D3
:101E4000BF92CF92DF92EF92FF920F931F93CF93A7
:101E5000DF93CDB7DEB761970FB6F894DEBF0FBE44
:101E6000CDBF8C0185E0F801DE011D9601900D9239
:101E70008A95E1F7F80140815181E28084EFC82E14
:101E800081E0D82E6091F7017091F801611571051C
:101E900009F461C19091F4012091F501892F822309
:101EA0008F3F09F458C1A380B480F090F601F5018A
:101EB000E61BF70BFF2009F4FCC08091F901382FD5
:101EC000307FE83CF10508F0B2C0311179C0FE2C3A
:101ED000251323C0941321C0E1101FC08F708061AF
:101EE0008093F9010E94BB0EC6010E94160E8091DC
:101EF000F901F80185838F2D61960FB6F894DEBF46
:101F00000FBECDBFDF91CF911F910F91FF90EF904A
:101F1000DF90CF90BF90AF900895AB2829F0842F29
:101F200085238F3F09F033C180E0F82FF170DF2E59
:101F300080FF3CC08091C2012091C30136E0821332
:101F400015C04D875E878D859E850E948613292F3B
:101F500022952F702230F0F0243018F59F70F1F0A8
:101F6000F8019581907FD1F4D12C1EC090E0389F6C
:101F7000F001399FF00D1124EC53FE4F6181651380
:101F800006C06081641303C062816E110FC00196A8
:101F90008770D5CF9F7011F0882331F3805E883031
:101FA00018F3C8010E94160EFD2CA5CFEE2009F4EF
:101FB000A2CF8091F90181608093F901F12C9BCF30
:101FC000251306C0941304C0F801EE2009F48DC057
:101FD0004D875E878D859E850E94770E882319F137
:101FE000EE2009F18091F901803270F02091F40126
:101FF0003091F50138872F831986BB86AA868C8796
:10200000CE0107960E94160E86E0F801A4EFB1E01B
:1020100001900D928A95E1F70E94C90E0E94BB0EB5
:10202000FF24F39468CFC8010E94160EF9CF311136
:1020300013C07A2DB98AA88A6E2D89890E947B0ED9
:1020400084EF91E00E94160E86E0F60111928A95C7
:10205000E9F70E94BB0EB2CF25130FC094130DC039
:10206000E1100BC0F8018583C8010E94160E86E0BE
:10207000F60111928A95E9F73ECF4D875E878D85EF
:102080009E850E94770E882371F2EE2061F2809186
:10209000F901803208F4B8CF2091F4013091F501B4
:1020A0003A8329831B82BD82AC828E83CE01019646
:1020B000A9CFE83CF10508F041C0FE2CEE2009F460
:1020C000B2CF25132AC0941328C08091F90180FD56
:1020D0001BC0982F907FC1F0F8018583903F31F0AD
:1020E000982F907F905F8F70892B8583C8010E9405
:1020F000160E86E0F801A4EFB1E001900D928A95EA
:10210000E1F70E94BB0EF7CE86E0F801A4EFB1E044
:1021100001900D928A95E1F7EECE4D875E878D8511
:102120009E850E94770E81116FCF8091F9018160A9
:102130008093F901C8010E94160EDDCE7A2DB98A6E
:10214000A88A6E2D89890E947B0E86E0F601119285
:102150008A95E9F7D6CFEE2009F465CF4D875E87E3
:102160008D859E850E94770EF82E882309F45BCF1B
:1021700086E0F801A4EFB1E001900D928A95E1F7B5
:1021800084EF91E00E943E0B0E94C90EBACF81E01D
:102190008E25CBCE88EC90E008951F93CF93DF93EC
:1021A000CDB7DEB72C970FB6F894DEBF0FBECDBF0C
:1021B0004F83588769877A878B879C87CE010796DC
:1021C0000E941F0F882369F08A859B85892B39F02F
:1021D0004F815885842F85238F3F09F071C016E009
:1021E0005FC086E0FE013796DE01119601900D92E8
:1021F0008A95E1F78A859B85892B89F38F8198855C
:1022000089238F3F61F32091C30130E0C90101961A
:10221000877099274091C2014817190671F40E94EE
:10222000540E1092C3011092C20186E0E4EFF1E077
:10223000DF011D928A95E9F7D2CF96E0929FD001F7
:10224000939FB00D1124AC53BE4FFE013196019007
:102250000D929A95E1F78093C3010E949A0EBFCF29
:10226000819FC00111248C539E4F0E941F0F882311
:10227000E9F0E091C2011E9FF0011124EC53FE4FE2
:102280004081518162817381848195810E948A0E8F
:102290008091C20190E00196877099278093C201D6
:1022A0008091C2019091C3018913DACF2C960FB6A9
:1022B000F894DEBF0FBECDBFDF91CF911F9108957F
:1022C00069857A858B859C850E948A0E88CFEF92DE
:1022D000FF920F931F93CF93DF938C01892B81F093
:1022E000F12CEE24E394E8012196F80184918437DF
:1022F00070F4843008F05FC08130B1F08230A1F119
:10230000DF91CF911F910F91FF90EF900895853746
:1023100009F44CC008F43DC09CE7980F903780F753
:102320008F770E94960B49C00E5F1F4FFE0184916C
:1023300090E2980F983060F48770FE2D01C0FF0F77
:102340008A95EAF78F2F0E94FC130E94251402C081
:102350000E94430B8F2D815030F2EFE9FFE031975F
:10236000F1F700C00000F7CF0E5F1F4FFE01849110
:1023700090E2980F983050F48770FE2D01C0FF0F47
:102380008A95EAF78F2F0E940214DFCF0E94960BE6
:10239000E1CF0E5F1F4FFE01C491C150D8F28FE90B
:1023A0009FE00197F1F700C00000F7CF0E5F1F4FCD
:1023B000FE01F490CFCF0E94430B8E01CBCF089546
:1023C0000C94DF110E94E01160932B0270932C0299
:1023D00080932D0290932E020C943E0E08950C943F
:1023E000E2110F931F9300912B0210912C02209168
:1023F0002D0230912E02602B712B822B932B1F917B
:102400000F910C94E2110F931F9300912B021091E6
:102410002C0220912D0230912E0260237123822301
:1024200093231F910F910C94E2110F931F9300912E
:102430002B0210912C0220912D0230912E02602748
:102440007127822793271F910F910C94E2110C940E
:10245000DF110C9427120E942912609327027093B7
:1024600028028093290290932A020C943E0E60E089
:1024700070E0CB010C942B120F931F9341E050E0BE
:1024800060E070E08A019B0104C0000F111F221F51
:10249000331F8A95D2F7C901B8011F910F910C948F
:1024A0002B120F931F9341E050E060E070E004C0F6
:1024B000440F551F661F771F8A95D2F78091270218
:1024C00090912802A0912902B0912A028A019B01D1
:1024D000082B192B2A2B3B2BC901B8011F910F91F7
:1024E0000C942B120F931F9341E050E060E070E0DA
:1024F00004C0440F551F661F771F8A95D2F7CB0182
:10250000BA01609570958095909500912702109181
:1025100028022091290230912A026023712382230C
:1025200093231F910F910C942B120F931F9341E053
:1025300050E060E070E004C0440F551F661F771F35
:102540008A95D2F78091270290912802A0912902C2
:10255000B0912A028A019B01082719272A273B27C5
:10256000C901B8011F910F910C942B120F931F9367
:1025700000912702109128022091290230912A020D
:10258000602B712B822B932B1F910F910C942B128C
:102590000F931F9300912702109128022091290286
:1025A00030912A0260237123822393231F910F917C
:1025B0000C942B120F931F93009127021091280265
:1025C0002091290230912A026027712782279327C0
:1025D0001F910F910C942B120895E92FEE0FE90F24
:1025E000EE0F8E0F982F977041E001C0440F9A951F
:1025F000EAF786958695869595E0899FF0011124E6
:10260000E650FE4F30E020E070E05191DF0111977D
:10261000CB01022E02C0969587950A94E2F781704D
:1026200081958527842385278C932F5F3F4F253005
:10263000310559F70895E92FEE0FE90FEE0F8E0FD0
:10264000982F977086958695869525E0829FF00154
:102650001124E650FE4F50E040E080E0219130E050
:10266000092E02C0369527950A94E2F72170332788
:10267000042E01C0220F0A94EAF7822B4F5F5F4FAE
:102680004530510559F70895BF92CF92DF92EF92EE
:10269000FF920F931F93CF93DF938C01C09027027B
:1026A000D0902802E0902902F0902A0280912B021B
:1026B00090912C02A0912D02B0912E02C82AD92A05
:1026C000EA2AFB2ACFE1D0E0BC2ED701C6010C2EAE
:1026D00004C0B695A795979587950A94D2F780FD83
:1026E0000EC0219788F7B12C8B2DDF91CF911F91D0
:1026F0000F91FF90EF90DF90CF90BF900895B801B9
:102700008C2F0E94EF02019761F3EECFCF93DF93FE
:10271000EC010E944413BE01DF91CF910C94EF02B3
:102720001F93CF93DF93EB019091C101992331F077
:10273000CB01DF91CF911F910C948613882379F000
:10274000CB010E944413182F682FCE010E94ED1276
:10275000BE01812FDF91CF911F910C94EF02CB012D
:102760000E941B13182FF4CF682F809109019091BC
:102770000A010C948515682F8091090190910A0136
:102780000C9487158091090190910A010C94891588
:1027900080912F02859585958595089580912F02CA
:1027A0008770089590912F02977081E009F480E07E
:1027B000089580913B02089590913B02892B80936C
:1027C0003B020895809590913B02982390933B02A1
:1027D000089510923B02089590913A02892B8093BC
:1027E0003A020895809590913A02982390933A0284
:1027F000089510923A02089590913902892B80939E
:102800003902089580959091390298239093390266
:102810000895109239020895809130020895089524
:102820000C940F1490913002981721F0809330028D
:102830000C941014089580913002882329F010928E
:10284000300280E00C9410140895E0910901F09199
:102850000A0180913B028083E0910901F0910A0115
:10286000808190913A02892B8083E0910901F09157
:102870000A01808190913902892B808390913002E6
:10288000992381F0E0910901F0910A018081892B5F
:1028900080838091090190910A010E943D15811168
:1028A0000E941B148091090190910A010C94140A52
:1028B00008950C94581498E0899F90011124622B7C
:1028C00060932F020E94511280912F028595859569
:1028D00085950C94591410922F0280E00C94591491
:1028E00090912F028095892380932F02282F2770A3
:1028F00071F4282F082E000C330B9217130639F0B1
:102900008595859585950E9472120C946B14089597
:1029100090E080E00E94742321E08C3E9E4F09F0FD
:1029200020E0822F089582E090E00C946C23682FC1
:1029300082E090E00C947A2383E090E00C946C2386
:10294000682F83E090E00C947A23CF9384E090E0AA
:102950000E946C23C82F81E290E00E946C23982F84
:102960008C2FCF910895CF93C92F682F84E090E0EA
:102970000E947A236C2F81E290E0CF910C947A230D
:10298000AB01BC018FE090E00C948C23AB01BC0147
:1029900083E190E00C948C2360E070E0CB010C9418
:1029A000C61460E070E0CB010E94C0140C94CC14FB
:1029B0006CEE7EEF90E080E00E94982360E082E081
:1029C00090E00E947A2360E083E090E00E947A2306
:1029D00010922B0210922C0210922D0210922E02B5
:1029E00060E084E090E00E947A2360E081E290E081
:1029F0000E947A2360E085E090E00E947A2360E004
:102A000086E090E00E947A236FEF87E090E00E94DA
:102A10007A2340E050E0BA0188E090E00E948C23E5
:102A200060E08DE090E00E947A2340E050E0BA013F
:102A300088E190E00E948C2360E087E190E00E94B2
:102A40007A2340E050E0BA018CE190E00E948C23B0
:102A500060E080E290E00E947A2340E050E0BA011A
:102A600088E190E00E948C230C94D1140C94D8142B
:102A7000682F8EE090E00C947A239C012E5F3F4FEC
:102A8000AC01485F5F4F80E02417350709F40895D3
:102A9000F90191919F019923B9F38F5FF5CF6623D7
:102AA00049F0FC01329608962191261729F0E81783
:102AB000F907D1F780E0089581E008959C01FC01B9
:102AC00032969FEF80E04191461751F09F3F19F4F5
:102AD000411101C0982F8F5F8630A9F79F3F09F4FD
:102AE0000895290F311D97FD3A95F90162830895E4
:102AF000FC01329608962191261303C0DF0111973D
:102B00001C92E817F907B9F708950C945E150C9418
:102B10007815029626E0FC0111922A95E9F70895AE
:102B2000089508950C9491150E94921580917D024C
:102B3000843049F110923D0288E190E020E40FB624
:102B4000F894A895809360000FBE2093600080E009
:102B50000E94C7020E94921583B7817F846083BF61
:102B600083B7816083BF7894889583B78E7F83BF56
:102B70000FB6F894A89580916000886180936000FA
:102B8000109260000FBE08950895CF930E94901593
:102B90000E9477050E94C415C0E08C2F0E94E204B9
:102BA000811105C0CF5FCC30C1F7CF91089581E08E
:102BB000FCCF08950C94D9150E94540E0E94080A67
:102BC0000E94C7020C94DA151F921FB61F9211249F
:102BD0008F939F93AF93BF9380913D02811113C058
:102BE0008091710290917202A0917302B09174026F
:102BF0004196A11DB11D8093710290937202A09322
:102C00007302B0937402BF91AF919F918F911F9007
:102C10001FBE1F90189582E084BD93E095BD9AEF8A
:102C200097BD80936E0008952FB7F894809171023C
:102C300090917202A0917302B09174022FBF089517
:102C40009C014FB7F8948091710290917202A0910B
:102C50007302B09174024FBF821B930B0895789456
:102C60001F921FB61F9211248F939F93AF93BF9310
:102C70008091710290917202A0917302B0917402DE
:102C80000196A11DB11D8093710290937202A093D1
:102C90007302B0937402BF91AF919F918F911F9077
:102CA0001FBE1F90189589E0E3E0F0E08093570085
:102CB000E491F0E0CF018670892B51F180E09FE331
:102CC000909376028093750281E08093E00080E229
:102CD0008093D8001092C9008FE19EE40197F1F72C
:102CE00000C0000087E090EBDC01809386029093A7
:102CF0008702A0938802B093890288E19CE00FB616
:102D0000F894A895809360000FBE90936000FFCF69
:102D100080E09EE3E2FDD4CF80E09CE3E1FDD0CFF4
:102D200080E098E3CDCFCF92DF92EF92FF920F93A6
:102D30001F93CF93C0E0E82EF12C8C2F0E94E20469
:102D400010E000E0C82ED12CC601002E02C09595DF
:102D500087950A94E2F780FD11C00F5F1F4F063080
:102D6000110591F7CF5FCC3041F780E0CF911F91F3
:102D70000F91FF90EF90DF90CF900895602F7C2F00
:102D800080E00E94D302E816F90639F781E0EECF21
:102D9000CF93C82F8CE20E949316882321F08C2FAA
:102DA000CF910C94931680E0CF910895CF930E9419
:102DB0008814811102C00E943615C5E608C00E9421
:102DC00077058FE39CE90197F1F700C00000C1503F
:102DD000B1F789E20E94C81681110BC18AE20E94F4
:102DE000C81681110E94361585E00E94C81681110F
:102DF0000E9453160E94931480933C0287E00E9425
:102E0000C816882371F08BE10E94C816882309F444
:102E1000CDC090913C02892F8D7F91FF826080937D
:102E20003C0280913C020E9497140E94A51490934A
:102E300078028093770280EE0E94C816882341F0C2
:102E400090917702892F8E7F90FF81608093770227
:102E500089E30E94C816882341F090917702892F58
:102E60008D7F91FF82608093770282EE0E94C81668
:102E7000882341F090917702892F8B7F92FF8460A5
:102E80008093770286EE0E94C816882341F09091C5
:102E90007702892F877F93FF88608093770283EE84
:102EA0000E94C816882341F090917702892F8F7E67
:102EB00094FF80618093770285E30E94C81688237F
:102EC00041F090917702892F8F7D95FF80628093EA
:102ED000770281E30E94C816882341F0909177021F
:102EE000892F8F7B96FF80648093770281E10E9417
:102EF000C816882341F090917702892F97FB87F9B4
:102F000080588093770280917702909178020E9496
:102F1000B31487E20E94C816C82F8EE10E94C8161B
:102F20008111C2608FE10E94C8168111C46080E2E5
:102F30000E94C8168111C86081E20E94C8168111E2
:102F4000C06182E20E94C8168111C06283E20E94C1
:102F5000C8168111C06484E20E94C816882309F44F
:102F600042C0C0688C2F0E94A0146C2F70E090E0CB
:102F700080E00E94EF1160912702709128028091F9
:102F8000290290912A020E9429128FE00E94C816FD
:102F9000882319F081E00E94381585E10E94C81647
:102FA000882339F180E0CF910C9438158EE00E948F
:102FB000C816882339F090913C02892F8B7F92FFAD
:102FC00084602DCF80E10E94C81690913C02882336
:102FD00029F0892F877F93FF886021CF892F8E7FEB
:102FE00090FF81601CCFC111BDCF0E949C14682F3F
:102FF000BDCFCF9108958091440280FF12C06091AF
:10300000100185E0689FB00111247595679575954D
:10301000679560387105A8F561157105A1F1862FD6
:10302000089581FF09C06091100185E0689FB0019B
:10303000112475956795EDCF6091100182FD0AC04E
:10304000809143028823D1F090910F01609110018B
:10305000891728F085E0689FB0011124DACF869F98
:10306000B001112485E0869F9001879F300D1124C7
:10307000692F70E0C9010E943E23CBCF65E070E06C
:10308000CECF8FE7089581E008958091440280FFBC
:103090000CC060910C0170E075956795759567950A
:1030A0006115710549F1862F089581FF06C0609171
:1030B0000C0170E075956795F3CF60910C0182FD6E
:1030C0000BC0909142029923A1F060910B01809175
:1030D0000C01961738F0682F70E06038710500F326
:1030E0008FE70895899FC001112470E00E943E235C
:1030F000F4CF61E070E0D7CF81E00895803F31F4F4
:103100000E94FB178195809348020895813F19F42E
:103110000E94FB17F8CF823F31F40E94FB17819584
:10312000809347020895833F19F40E94FB17F8CF5C
:10313000893F29F40E9445188093490208958A3FE7
:1031400021F40E9445188195F7CF8B3F31F40E94FE
:103150004518819580934A0208958C3F19F40E9486
:103160004518F8CF843F31F4809146028160809306
:1031700046020895853F21F4809146028260F7CF90
:10318000863F21F4809146028460F1CF873F21F48D
:10319000809146028860EBCF883F21F480914602FF
:1031A0008061E5CF8D3F31F480914402816080934E
:1031B000440208958E3F21F4809144028260F7CF4B
:1031C0008F3FB9F7809144028460F1CF909147021C
:1031D000803F59F48091480287FF0DC01092480249
:1031E00091110BC01092430208C0813F81F480917D
:1031F000480218169CF3992381F08091490290911E
:103200004A02892B09F064C0109242020895823F5D
:1032100049F497FFF0CF1092470280914802811144
:10322000ECCFE0CF833F19F41916ACF3E4CF209133
:103230004902893F29F41216F4F610924902DBCFB5
:103240008A3F19F427FFD7CFF8CF20914A028B3F4E
:1032500029F427FFD0CF10924A02CDCF8C3F19F42A
:103260001216CCF3C8CF843F31F4809146028E7F92
:1032700080934602C0CF853F21F4809146028D7F26
:10328000F7CF863F21F4809146028B7FF1CF873FB5
:1032900021F480914602877FEBCF883F21F4809113
:1032A00046028F7EE5CF8D3F31F4809144028E7FC0
:1032B00080934402A0CF8E3F21F4809144028D7F01
:1032C000F7CF8F3F09F097CF809144028B7FF0CFEB
:1032D00008950E9414169C01909147028091480223
:1032E000982B21F0309341022093400290914902A3
:1032F00080914A02982B21F030933F0220933E02A6
:1033000085E492E00C941F0AEF92FF920F931F93B3
:10331000CF93DF9300D000D000D0CDB7DEB786E0EA
:10332000E5E4F2E0DE01119601900D928A95E1F755
:10333000E0904702F09048020091490210914A0241
:1033400010924702109248021092490210924A02CB
:103350008E2D8F2991F080914002909141020E9420
:103360002016AC0190914302992309F43FC080914B
:1033700011018417150608F447C0802F812B91F0A6
:1033800080913E0290913F020E942016AC019091E4
:103390004202992309F477C080910D018417150624
:1033A00008F47FC08091470290914802892B909148
:1033B0004902892B90914A02892B11F00E946919C8
:1033C00086E0FE013196A5E4B2E001900D928A9567
:1033D000E1F726960FB6F894DEBF0FBECDBFDF91A2
:1033E000CF911F910F91FF90EF90089520911201BE
:1033F0008AE0289F900111242417350708F0BDCFDB
:103400009F5F9093430202C09F3FD1F7EE2059F097
:103410000E94FB179FEF1E140CF491E0899F802DF2
:10342000112480934702FF2059F00E94FB179FEF61
:103430001F140CF491E0899F802D11248093480281
:1034400030914702332309F498CF20914802222378
:1034500009F493CF45EB3403C0011124992359F0AB
:103460009093470245EB240390011124332339F054
:103470003093480282CF81E080934702F3CF81E00E
:10348000809348027ACF20910E018AE0289F900114
:1034900011242417350708F085CF9F5F90934202CF
:1034A00002C09F3FD1F7002359F00E9445189FEFBB
:1034B00010160CF491E0899F802D1124809349020D
:1034C000112359F00E9445189FEF11160CF491E05A
:1034D000899F802D112480934A0230914902332321
:1034E00009F460CF20914A02222309F45BCF45EB17
:1034F0003403C0011124992359F09093490245EBFC
:10350000240390011124332339F030934A024ACF27
:1035100081E080934902F3CF81E080934A0242CF59
:1035200086E0E5E4F2E0DF011D928A95E9F710926A
:10353000430210924202109244020895833081F1B6
:1035400028F4813059F08230D1F00895853009F4A3
:1035500049C0B8F1863009F456C00895809112012F
:10356000482F460F5527551F4F3F510524F4680F2C
:103570006093120108958FEF809312010895809156
:103580001101482F460F5527551F4F3F510524F471
:10359000680F6093110108958FEF809311010895D2
:1035A00080911001482F460F5527551F4F3F510559
:1035B00024F4680F6093100108958FEF8093100139
:1035C000089580910F01482F460F5527551F4F3FF3
:1035D000510524F4680F60930F0108958FEF8093D5
:1035E0000F01089580910C01482F460F5527551F54
:1035F0004F3F510524F4680F60930C0108958FEF3D
:1036000080930C01089580910B01482F460F552798
:10361000551F4F3F510524F4680F60930B01089527
:103620008FEF80930B010895833011F128F48130DE
:1036300049F0823091F00895853081F120F1863093
:10364000C1F1089580911201681720F4861B8093C0
:1036500012010895109212010895809111016817C6
:1036600020F4861B80931101089510921101089592
:1036700080911001681720F4861B80931001089533
:1036800010921001089580910F01681720F4861B95
:1036900080930F01089510920F01089580910C01FD
:1036A000681720F4861B80930C01089510920C017A
:1036B000089580910B01681720F4861B80930B01FD
:1036C000089510920B0108950F931F9341E050E06D
:1036D00060E070E08A019B0104C0000F111F221FEF
:1036E000331F8A95D2F7C901B8010E94EF111F91CB
:1036F0000F910C94540E8B3109F461C040F58B305E
:1037000071F078F4863009F443C020F4853059F123
:1037100080E00895873009F444C08830C9F781E01B
:103720000895803109F459C068F48E3089F790917A
:103730003C02892F8B7F92FF846080933C0282FD44
:1037400048C0EDCF863159F3893149F3E1CF8A3250
:10375000E1F060F48732A9F020F48E31C8F28D5187
:1037600011C08932A9F60E947502D9CF833438F48A
:103770008A33F0F5853329F0883389F2C9CF833451
:1037800039F680E00E94641BCACF0E943615C7CF6D
:1037900080913C02807F80933C0281E080934C02C8
:1037A000089590913C02892F8E7F90FF81608093D5
:1037B0003C0280FDB4CF817F80933C02B0CF9091DA
:1037C0003C02892F8D7F91FF826080933C0281FFB4
:1037D000A6CF80913C028160EFCF90913C02892F6F
:1037E000877F93FF886080933C0283FDF2CF97CF61
:1037F0008953C8CF80E008950C94FA1B8E518A300B
:1038000030F4E82FF0E0EE56FE4F8081089580E01E
:103810000895CF93C82F80914C028130B9F088234E
:1038200031F08230A1F110924C0280E00DC00E9474
:10383000D9138232D1F78C2F0E94FA1B81111BC041
:103840008C2F0E947B1B8170CF9108950E94D91309
:10385000823289F38C2F0E94FC1B81110AC0C43173
:1038600099F060F4CB3029F0C03169F782E08093A1
:103870004C0281E0E8CF81E090E0E5CFC93221F051
:10388000C833B9F380E0DFCF10924C02FBCFC932CE
:1038900019F188F4C43101F120F4C73081F181E0DD
:1038A000D3CF82EE8C0F8630D0F78C2F0E94FE1B78
:1038B00080934B02F4CFCE3401F140F46AE0CB3474
:1038C00071F780914B020E949E1AE9CFC13579F0C1
:1038D00061E0C235B1F3E3CF80914B02882319F048
:1038E00010924B02DCCF81E080934C02ADCF61E0BF
:1038F00080914B020E94141BD2CF6AE0F9CF8EE177
:103900008093120182E3809311018AE08093100179
:1039100084E180930F0188E080930C0188E280931A
:103920000B01BDCF809155020895CF93DF9300D056
:103930000F92CDB7DEB790917D02943019F589834F
:103940007B836A8382E08093E9008FEF9091E800A7
:10395000815095FD06C095ED9A95F1F70000811113
:10396000F5CF8091E80085FF0DC050E040E063E0B6
:1039700070E0CE0101960E94AD1E8091E8008E7726
:103980008093E8000F900F900F90DF91CF910895F2
:10399000BC0184E00C94951CBC0183E00C94951C44
:1039A0009C0182E08093E9009FEF8091E8009150B4
:1039B00085FD06C085ED8A95F1F700009111F5CFE0
:1039C0008091E80085FF0CC050E040E066E070E0C8
:1039D000C9010E94AD1E8091E8008E778093E800B7
:1039E0000895CF93DF93EC0181E08093E9008FEF9E
:1039F0009091E800815095FD06C095ED9A95F1F7FC
:103A000000008111F5CF8091E80085FF14C050E0DF
:103A100040E068E070E0CE010E94AD1E8091E800B9
:103A20008E778093E80088E0FE01ADE4B2E001907B
:103A30000D928A95E1F7DF91CF91089580917C02F4
:103A4000811109C00E943D200E949A208091E200CD
:103A500084608093E200089510927C020895089596
:103A600008950C94DC1542E061EC81E00E94B91FDE
:103A700042E261EC82E00C94B91F80917F028330B6
:103A800009F45FC030F48130C1F1823009F49BC089
:103A900008958A3009F487C08B3009F46DC08930ED
:103AA00009F04EC080917E02813209F049C08091B8
:103AB000820290918302029708F042C08091E80050
:103AC000877F8093E8008091E80082FF35C0909165
:103AD000F3008091F200029729F48091F1008B7F2E
:103AE000813021F48091F100809355028091E800AB
:103AF0008B778093E8000C94ED1F80917E02813AD1
:103B0000F9F48091E800877F8093E8008091820239
:103B100090918302892B61F468E08DE492E070E07B
:103B20000E94FC1E8091E8008B778093E800089546
:103B300060E090E080E0F3CF80917D028111C3CFFF
:103B4000089580917E02813AD9F780918202909106
:103B50008302892BA9F78091E800877F8093E80092
:103B60008091E80080FFFCCF80911D018093F100DF
:103B70008091E8008E77BDCF80917E02813201F77F
:103B80008091820290918302892BD1F68091E80086
:103B9000877F8093E8000E94ED1F809180028093D0
:103BA0001D010C94540E80917E02813249F6809161
:103BB000E800877F8093E8000E94ED1F80918102DA
:103BC00080935602089580917E02813A09F0B8CF21
:103BD0008091E800877F8093E8008091E80080FF73
:103BE000FCCF80915602C2CF84B7877F84BF0FB6C7
:103BF000F894A8958091600088618093600010928D
:103C000060000FBE80E890E00FB6F89480936100EA
:103C1000909361000FBE0E94670A0E943D200E949F
:103C20009A208091E20084608093E20078940E9460
:103C300023230E94710A83E191E00E94030A80918C
:103C40007D02853039F00E94790A0E946F0A0E9435
:103C5000700AF5CF0E94941580917B02882379F336
:103C60000E94C515882359F30E94971EE8CF0C9433
:103C7000391E292F33272330310519F168F42130FB
:103C8000310509F44AC02230310509F44BC090E0F7
:103C900080E030E020E028C02132310579F1223285
:103CA0003105A9F780E490E02AE533E0611571055C
:103CB000D9F081E890E029ED32E061307105A1F0A2
:103CC000E6CF99278130910599F0009741F0823035
:103CD000910589F00397D9F6ECE5F2E002C0E8E837
:103CE000F2E0849190E09F01FA01318320830895EE
:103CF000E0E7F2E0F6CFE2E6F2E0F3CF89E090E031
:103D00002EE932E06115710579F389E090E027EB47
:103D100032E06130710541F3BACF82E190E027ECE7
:103D200032E0E2CF8BE390E02CE832E0DDCF80E1BF
:103D300089BD82E189BD09B400FEFDCF8091D80024
:103D40008F7D8093D8008091E00082608093E000B6
:103D50008091E00081FDFCCF0895AF92BF92CF9299
:103D6000DF92FF920F931F93CF93DF936C01EB01D0
:103D70008A010E940C20F82E811123C00115110523
:103D800039F0F80180819181C81BD90BC80ED91E6A
:103D9000B12CA12C2097A9F08091E80085FD22C0CC
:103DA0008091E8008E778093E80001151105A1F05D
:103DB000F80180819181A80EB91EB182A08285E0B0
:103DC000F82E8F2DDF91CF911F910F91FF90DF90F3
:103DD000CF90BF90AF9008950E940C208823D1F21D
:103DE000F82EEFCFF60181916F018093F1002197BA
:103DF000FFEFAF1ABF0ACECFFC01809184029091F1
:103E0000850286179707A0F06115710529F4909136
:103E1000E8009E779093E80090E06115710551F4F9
:103E2000911108C08091E80082FF34C080E00895BD
:103E3000BC01F2CF80917D028823C1F18530C1F1B0
:103E40008091E80083FD30C08091E80082FDEACFD8
:103E50008091E80080FFE1CF8091F3002091F20093
:103E6000382F6115710519F02830310558F091E0AF
:103E70002830310509F090E02091E8002E7720935A
:103E8000E800CBCF81918093F100615071092F5FE1
:103E90003F4FE7CF80917D02882341F0853041F08C
:103EA0008091E80083FFBECF81E0089582E008950D
:103EB00083E00895FC018091840290918502861729
:103EC0009707A0F06115710529F48091E8008E77BD
:103ED0008093E80090E06115710551F4911108C0DC
:103EE0008091E80082FF35C080E00895BC01F2CFE8
:103EF00080917D028823C9F18530C9F18091E80065
:103F000083FD31C08091E80082FDEACF8091E80016
:103F100080FFE1CF8091F3002091F200382F6115EE
:103F2000710519F02830310558F091E0283031053D
:103F300009F090E08091E8008E778093E800CBCF85
:103F400084918093F1003196615071092F5F3F4F4A
:103F5000E6CF80917D02882341F0853041F0809149
:103F6000E80083FFBDCF81E0089582E0089583E0FB
:103F70000895982F973028F08F708093E90081E0A2
:103F800008959093E900242F762F50E0981731F090
:103F90007091EC002091ED005091F00021FD02C0E5
:103FA0009F5FE8CF3091EB003E7F3093EB00309184
:103FB000ED003D7F3093ED003091EB0031603093A8
:103FC000EB007093EC002093ED005093F0002091F3
:103FD000EE0027FDE5CF80E0089580917E0287FF07
:103FE00013C08091E80082FF06C08091E8008B77C3
:103FF0008093E80004C080917D028111F2CF089582
:1040000080917D028823D9F38091E80080FFF8CF6A
:104010008091E8008E77ECCF2091E4003091E500AC
:1040200095E6A9012091EC00822F817020FF06C047
:104030008091E80080FF06C080E008952091E800AC
:1040400022FD1AC080917D02882389F0853089F095
:104050008091EB0085FD0FC02091E4003091E500D8
:1040600042175307F9F29150E1F684E0089582E097
:10407000089583E0089581E008950E94AB200E9496
:10408000B320E0EEF0E0808181608083E8EDF0E035
:1040900080818F77808319BCA7EDB0E08C918E7FF3
:1040A0008C9380818F7E808310927C0208950F9381
:1040B0001F93CF93DF930E94AB200E94B320C8EDE3
:1040C000D0E088818F778883888180688883888121
:1040D0008F7D888319BC10927D0210927902109214
:1040E0007B0210927A0200EE10E0F80180818B7F53
:1040F000808388818160888342E060E080E00E9464
:10410000B91FE1EEF0E080818E7F8083E2EEF0E087
:10411000808181608083808188608083F8018081D4
:104120008E7F8083888180618883DF91CF911F910A
:104130000F910895E8EDF0E080818F7E8083E7EDB8
:10414000F0E080818160808384E082BF81E08093A1
:104150007C020C945720E8EDF0E080818E7F808314
:104160001092E20008951092DA001092E100089592
:104170001F920F920FB60F9211242F933F934F93DC
:104180005F936F937F938F939F93AF93BF93EF93BF
:10419000FF938091E10082FF0BC08091E20082FFDB
:1041A00007C08091E1008B7F8093E1000E94222371
:1041B0008091DA0080FF19C08091D80080FF15C07F
:1041C0008091DA008E7F8093DA008091D90080FFA1
:1041D00096C080E189BD82E189BD09B400FEFDCFB2
:1041E00081E080937D020E941E1D8091E10080FF8E
:1041F00019C08091E20080FF15C08091E2008E7F9F
:104200008093E2008091E20080618093E2008091DF
:10421000D80080628093D80019BC85E080937D022D
:104220000E94301D8091E10084FF2BC08091E2004C
:1042300084FF27C080E189BD82E189BD89B5982FBF
:10424000917080FFFBCF8091D8008F7D8093D80044
:104250008091E1008F7E8093E1008091E2008F7E6B
:104260008093E2008091E20081608093E20080917F
:104270007902882309F449C084E080937D020E947A
:10428000311D8091E10083FF29C08091E20083FF0E
:1042900025C08091E100877F8093E10082E08093D8
:1042A0007D02109279028091E1008E7F8093E1007F
:1042B0008091E2008E7F8093E2008091E200806135
:1042C0008093E20042E060E080E00E94B91F8091AC
:1042D000F00088608093F0000E942F1DFF91EF9105
:1042E000BF91AF919F918F917F916F915F914F910E
:1042F0003F912F910F900FBE0F901F90189519BCF2
:1043000010927D020E942C1D70CF8091E30087FDEA
:1043100093E090937D02B3CF1F920F920FB60F924E
:1043200011242F933F934F935F936F937F938F93BA
:104330009F93AF93BF93CF93DF93EF93FF93D0916E
:10434000E900DF708091EC00C82FC17080FDC0E8EB
:104350001092E9008091F000877F8093F0007894BC
:104360000E94D0211092E9008091F0008860809333
:10437000F000CD2BCF70C093E900FF91EF91DF915A
:10438000CF91BF91AF919F918F917F916F915F91ED
:104390004F913F912F910F900FBE0F901F90189546
:1043A0001F93CF93DF93CDB7DEB7AA970FB6F894DC
:1043B000DEBF0FBECDBF8EE792E02091F100FC0181
:1043C0002193CF01F2E086389F07B9F70E943D1D87
:1043D0008091E80083FF1EC180917E0290917F0250
:1043E0009A3008F017C1E92FF0E0E253FC4D0C942D
:1043F0005223803899F0823809F00CC180918202F2
:104400008F70873008F006C18093E9008091EB003F
:1044100085FB882780F91092E90006C080917A0216
:1044200090917B02911182609091E800977F909328
:10443000E8008093F1001092F1008091E8008E77FF
:10444000E5C0882309F4D3C0823009F0E3C080912D
:1044500080028111D6C0809182028F702FEF280FC9
:10446000263008F0D7C08093E9002091EB0020FFB0
:10447000C8C0933031F48091EB0080628093EB00F0
:10448000C0C09091EB0090619093EB0021E030E090
:1044900001C0220F8A95EAF72093EA001092EA0001
:1044A0008091EB008860EACF8111B4C01091800246
:1044B0001F778091E3008078812B8093E3008091C7
:1044C000E800877F8093E8000E94ED1F8091E8005C
:1044D00080FFFCCF8091E30080688093E30082E05E
:1044E000111183E080937D0295C08058823008F0DE
:1044F00091C080918002909181028C3D23E09207CF
:10450000A1F583E08A838AE289834FB7F894DE01BC
:10451000139620E03EE051E2E32FF0E05093570085
:10452000E49120FF03C0E295EF703F5FEF708E2FA4
:1045300090E0EA30C0F0C7968D939D932F5F2431B1
:1045400059F74FBF8091E800877F8093E8006AE2C7
:1045500070E0CE0101960E94FC1E8091E8008B77EE
:104560008093E80057C0C096E7CF609182027091B7
:104570008302AE014F5F5F4F0E94371EBC01892B43
:1045800009F448C09091E800977F9093E8008981F2
:104590009A810E945A1FE1CF8038E1F58091E800AE
:1045A000877F8093E800809179028093F10045CF66
:1045B000811130C090918002923060F58091E800C6
:1045C000877F8093E800909379020E94ED1F80918D
:1045D0007902882311F084E005C08091E30087FD13
:1045E000FACF81E080937D020E94331D13C0809139
:1045F0008002813079F481E0933009F080E080938B
:104600007B021092E9008091E800877F8093E800A8
:104610000E94ED1F8091E80083FF0AC08091E800AE
:10462000877F8093E8008091EB0080628093EB00AD
:10463000AA960FB6F894DEBF0FBECDBFDF91CF9123
:104640001F9108950895CF9380917D028823A1F052
:10465000C091E900CF709091EC00892F817090FD9E
:1046600080E8C82B1092E9008091E80083FD0E9449
:10467000D021CF70C093E900CF91089597FB072E0A
:1046800016F4009407D077FD09D00E94582307FC48
:1046900005D03EF4909581959F4F08957095619552
:1046A0007F4F0895EE0FFF1F0590F491E02D0994C0
:1046B000AA1BBB1B51E107C0AA1FBB1FA617B70748
:1046C00010F0A61BB70B881F991F5A95A9F7809564
:1046D0009095BC01CD010895F999FECF92BD81BDA1
:1046E000F89A992780B50895A8E1B0E042E050E03B
:1046F0000C94A023262FF999FECF92BD81BDF89A84
:10470000019700B4021639F01FBA20BD0FB6F89415
:10471000FA9AF99A0FBE08950396272F0E947B23D9
:104720000E947A23252F0E947B23242F0C947B2325
:104730000196272F0E947B230C947A23DC01CB0166
:10474000FC01F999FECF06C0F2BDE1BDF89A3196A1
:1047500000B40D9241505040B8F70895F894FFCF3F
:104760001D0C1D0C750C750CC70CE30C4A0C4A0C87
:10477000EE0C7A0D890D890DE50D4A0C4A0CEE0DF3
:10478000630E630E6C0E6C0E6E0E6C0E6C0E6C0E69
:10479000630E630E730E6C0E6C0E730EF9212122E4
:1047A0000A2321220A23542275220A23CC22D8224A
:1047B00001A10100A20106A20131022808641E1411
:1047C0000A321E921CF11CD01CCC1CC81C01E20039
:1047D000E900EA00B500B600B700CD008301CC00C7
:1047E0008A01920194012102230224022502260259
:1047F00027022A02B300B4006F0070008182839404
:104800006697C63435F6F7313332360000000000C3
:1048100000E200E900EA00B500B600B700CD008371
:1048200001CC008A01920194012102230224022575
:1048300002260227022A02B300B4006F0070008132
:0C4840008283010203040506070809003A
:00000001FF
