:100000000C9482010C9416090C94CB010C94CB0136
:100010000C94CB010C94CB010C94CB010C94CB0130
:100020000C94CB010C94CB010C946A200C943E21CF
:100030000C9496150C94CB010C94CB010C94CB0131
:100040000C94CB010C94CB010C94CB010C94CB0100
:100050000C94CB010C94E1150C94CB010C94CB01C6
:100060000C94CB010C94CB010C94CB010C94CB01E0
:100070000C94CB010C94CB010C94CB010C94CB01D0
:100080000C94CB010C94CB010C94CB010C94CB01C0
:100090000C94CB010C94CB010C94CB010C94CB01B0
:1000A0000C94CB010C94CB010C94CB0135001E00B9
:1000B0001F002000210022002B0014001A0008005D
:1000C00015001700390004001600070009000A0097
:1000D000E1001D001B00060019000500E0002900DA
:1000E000E200E3002C0001510000000000000000CD
:1000F0002A002800230024002500260027002D00C8
:100100001C0018000C00120013002E000B000D0044
:100110000E000F00330034000500110010003600FF
:100120003700380001512C00E700E600E400E5004C
:1001300028002A0000000000000000003A003B00F8
:100140003C003D003E003F0029000100520001003C
:10015000010001000100500051004F0001002F007C
:1001600001004A004B004E00010026020100A800D9
:10017000A900AA000100010000000000000000002A
:100180004C00010040004100420043004400450093
:10019000010024002500260001003100300021006C
:1001A000220023000100010027021E001F00200082
:1001B00001000100010027005000520051004F00D3
:1001C00001004C00000000000000000004033000AB
:1001D00000000C03570069006E0067004200000039
:1001E00010034D0061007300740065007200790017
:1001F00000000403090409023B00020100A0FA09FF
:100200000400000103010100092111010001224045
:10021000000705810308000A09040100010300002A
:10022000000921110100012281000705820320003D
:100230000A1201100100000008EDFE6666010001CF
:1002400002030105010902A10185020901A10005BE
:1002500009190129051500250195057501810295EA
:1002600001750381010501093009311581257F954B
:10027000027508810609381581257F950175088169
:1002800006050C0A38021581257F9501750881063F
:10029000C0C005010980A101850319012AB7001515
:1002A0000126B700950175108100C0050C0901A158
:1002B00001850419012AA002150126A002950175E5
:1002C000108100C005010906A101050719E029E711
:1002D00015002501950875018102950175088101B8
:1002E0000507190029FF150026FF009506750881EE
:1002F00000050819012905950575019102950175FB
:10030000039101C011241FBECFEFDAE0DEBFCDBFE5
:1003100004B603FE29C08091860290918702A091C5
:100320008802B09189028730904BA740B04BE1F42E
:10033000109286021092870210928802109289020F
:1003400014BE84B7877F84BF0FB6F894A8958091B8
:100350006000886180936000109260000FBEE091A1
:100360007502F0917602099411E0A0E0B1E0E4E1B9
:10037000F7E402C005900D92AC39B107D9F722E03D
:10038000ACE9B1E001C01D92A638B207E1F70E94C6
:10039000A61D0C9460230C9400000C94930481E03F
:1003A000089581E008950C94CF0108950C94D5012F
:1003B0001F93CF93DF9300D000D00F92CDB7DEB75D
:1003C00049835A836B833091C10189819A813111AC
:1003D0001DC06623B9F02223A9F00E94F612182F3F
:1003E000682F89819A810E949F1269817A81812F69
:1003F0000F900F900F900F900F90DF91CF911F9162
:100400000C9488020E94CD12182FEFCF0E94F61292
:1004100069817A81EDCFFC01262F40815181628173
:10042000738184810C94D801CF93DF93EC0160E059
:100430000E940B02BE01DF91CF910C94D6010E9465
:100440003A14811102C00E94E8140C94CD010C945E
:10045000950408950E94060E0E9429022FEF84E35E
:100460009CE0215080409040E1F700C000000C94D7
:1004700005160F931F93CF93DF93EC0161E00E9469
:100480000B028C01BE010E94D301882329F1BE0119
:10049000C8010E94C9068823F9F0BE01C8010E9464
:1004A0001B078823C9F0BE01C8010E943E088823AB
:1004B00099F08A81882339F001158CE5180751F0ED
:1004C0000F3D1C4579F0CE01DF91CF911F910F9127
:1004D0000C94D1010E942A0280E0DF91CF911F91FC
:1004E0000F9108950E94E814F7CF08950C947502B7
:1004F00081E008950C947802CF93C82F0E94760271
:100500008C2FCF910C947A0290E080E008950895AA
:10051000972F70E026E0929F600D711D1124FB0162
:1005200098E4899FE00DF11D1124EE0FFF1FE455A3
:10053000FF4F859194910895FC01EE0FFF1FE45346
:10054000FE4F859194910895CF93DF930E94880286
:100550000E94B903EC01811520E5920708F042C022
:10056000811530E4930708F0BDC0883E910528F559
:10057000803E910508F09DC0883A910588F4853A3F
:10058000910508F08FC08130910509F492C0009761
:1005900009F48FC0049708F08CC0D0E0C0E089C097
:1005A0008F3B910508F489C0805C9109C03CD1055E
:1005B000A0F30E949C02EC017CC08115904250F493
:1005C000C11581E0D80708F074C0C03FD10528F3F9
:1005D000D0656FC0C11590E3D90708F079C0CE018E
:1005E0009F70E7CF811525E5920758F5811534E511
:1005F000930708F0A6C0811542E5940750F4C11591
:1006000081E5D80708F471C0DC2FCC27C16FD06A10
:1006100050C0982F969596959E0123703327C1154B
:10062000D34508F07FC0C1E0D0E002C0CC0FDD1F91
:100630002A95E2F720E2929FC0011124C82BD92B02
:100640006FC0C11589E5D807A8F4C11598E5D90789
:1006500008F07CC0C11526E5D20708F09ECF8C2F8C
:100660000E945004C82FD0E0DC2FCC27CC27DF71AC
:10067000D0621FC0C1153AE5D30708F46CC0CE01A3
:1006800090568115904208F088CF8D2F8F710E946F
:10069000500490E0982F882788279F719C012C2B6D
:1006A000E901E6CFC55AD0E0C45BDE4FC881D0E097
:1006B000D064CE01DF91CF910895C85AD0E0CC0F1D
:1006C000DD1FC25EDE4F0990D881C02DD464F1CF0A
:1006D000CE019927D3FF03C0EC01D86CEACFEC011F
:1006E000D06CE7CFDF70D06AE4CFCE01E4E096951E
:1006F0008795EA95E1F783702C2F26952695237030
:1007000090E2299F90011124382B8C2F8370C1E037
:10071000D0E002C0CC0FDD1F8A95E2F7C22BD32BAD
:10072000DC68C7CFC1E0D0E002C0CC0FDD1F2A9546
:10073000E2F730E2939FC0011124C82BD92BDA686D
:10074000B8CFD82FCC27C46FD06AB3CFDC2FCC273B
:10075000C06FD06AAECF8C2F8F700E94500434E0EF
:10076000D695C7953A95E1F7CF709C2FEC01D069EB
:10077000A0CF82389105B1F1B0F48133910509F42D
:1007800075C048F48932910509F469C08A3291052F
:1007900009F473C008958533910509F459C089336C
:1007A000910501F10895833E9105A9F138F4803E49
:1007B0009105F9F0823E910549F10895863E910533
:1007C000A9F1873E9105C9F1843E910519F5209163
:1007D000780221FF1FC08091770284FD14C087EE4C
:1007E00090E00895209177022370A1F080EE90E0D0
:1007F00008952091770220FD47C03091780230FFA4
:1008000009C024FF44C090E080E004C0209177023A
:1008100022FDF7CF08952091770222FD3BC0309151
:10082000780230FDE3CF24FFF5CFEDCF20917702A2
:1008300023FFF0CF24FDE7CFD2CF2091770223FD15
:100840002CC03091780231FFEECF84EE90E0089515
:100850002091770225FFDECF89E290E00895209174
:10086000770225FFD7CF85E390E0089520917702A6
:1008700026FFD0CF8AE290E008952091770226FFEC
:10088000C9CF81E390E0089589E390E0089583EE75
:1008900090E0089582EE90E0089586EE90E008954D
:1008A0009091770292FF06C0282F28712830F9F422
:1008B000877F846093FF06C0282F28712831F1F4C8
:1008C000877E84612091780220FF06C0382F38711E
:1008D0003830D9F4877F816021FF06C0282F287126
:1008E0002831D1F4877E816194FD877E0895282F79
:1008F00024712430F9F68B7F8860DCCF282F247197
:10090000243101F78B7E8861DDCF382F3171313092
:1009100019F78E7F8860E0CF282F2171213121F7D0
:100920008E7E8861E1CF089508950C949404E82F99
:10093000F0E0ED59FD4F80810895089580EA8A9591
:10094000F1F70895F894E82FE295EF70F0E031A107
:10095000282F2F7081E090E001C0880F2A95EAF7D8
:10096000982F9095932391A392A1892B82A3789499
:10097000089508950E94F905809100018091000179
:1009800096E0811190E09093700286E0891B80933D
:100990006F0286EF0E94A20487EF0E94A20481E307
:1009A0000E94A20483E30E94A20482E30E94A204A4
:1009B00086E30E94A20484E90E94A20486E60E94C3
:1009C000A20487E90E94A20486EC0E94A20484E3A8
:1009D0000E94A20485E30E94A204E7E5F2E0A3E6F8
:1009E000B2E011921D9282E0E336F807D1F786E07B
:1009F0000E94A4050E941F020C9403060E94DB05BE
:100A0000882309F180916F0290E08D599D4F0E94DB
:100A10001606811115C080919C018F5F80939C0107
:100A2000863060F0E0916F02F0E0ED59FD4F90E00C
:100A300080E01192019686309105D9F70C94270237
:100A400010929C01FBCF8091700290E08D599D4FD8
:100A50000E942F060C94B904CF92DF92EF92FF927E
:100A60000F931F93CF93DF93C5E5D1E007E512E025
:100A7000D12CEE24E394F12C8991F894E82FE2959F
:100A8000EF70F0E021A18F70A70102C0440F551F45
:100A90008A95E2F7CA01922F982B91A392A1809593
:100AA000892382A378940E949E04EFE4F1E030E071
:100AB00020E0C12C4191A42FA295AF70B0E0909698
:100AC0008C9190E04F7002C0959587954A95E2F71A
:100AD00080FD36C08E2D022E01C0880F0A94EAF7E1
:100AE000C82A2F5F3F4F2630310521F7FE0131978D
:100AF00080810E94A204F8018081C81619F1C08289
:100B000081E0D82A0F5F1F4FF1E0CB35DF0709F0F6
:100B1000B3CF6091700270E06D597D4F2D2D46E08E
:100B200087E592E00E94A5050E94FE048D2DDF91CD
:100B3000CF911F910F91FF90EF90DF90CF9008958C
:100B400080E0CECF80E0DDCF0895FF920F931F931A
:100B5000CF93DF93F82E092F162FD72FC42F2223E0
:100B600049F081E080939F010E94C61590939E01F9
:100B700080939D0180919F018823A1F080919D0128
:100B800090919E010E94D215069760F0EF2DF02FF4
:100B9000A12FBD2FCE0FDF2FD11DEC17FD0741F484
:100BA00010929F01DF91CF911F910F91FF900895B7
:100BB00081918D93F2CF8091A001811111C080911C
:100BC000D80080618093D8008AE18A95F1F700C04F
:100BD0009091D900892F817090FF82E08093A001CD
:100BE00081E09091A001913009F080E008950C948B
:100BF000DB050E94F705809300010E94DB0581114F
:100C00000C940A0608950E94DB05811102C00C9421
:100C10001006089561E070E081E091E00C94C7084F
:100C200061E070E081E091E00C94CE08CF93DF9317
:100C3000D82FC92F0E946809009779F4ED2FFC2F57
:100C4000DC01AE55BE4F2C91219301968630910563
:100C5000B9F781E0DF91CF91089580E0FBCF30E0DC
:100C600020E0FC014191CF01F901EE55FE4F408398
:100C70002F5F3F4F26303105A1F70895AF92BF9205
:100C8000CF92DF92EF92FF920F931F93CF93DF9358
:100C90007C015B01C42FD22FFC0182818823F9F0F3
:100CA0004093AA010E94C6159093A9018093A801C0
:100CB00080E28C0F883008F061C0C77081E001C00D
:100CC000880FCA95EAF7DF91CF911F910F91FF909E
:100CD000EF90DF90CF90BF90AF900C948A0B109163
:100CE000AA01141340C08091A8019091A9010E940B
:100CF000D2156C01B701C5010E947C10C816D90637
:100D000090F5C0E2CD0F1D17B9F080E2810F883059
:100D100040F4177081E001C0880F1A95EAF70E942D
:100D2000910BC83048F481E09D2F977001C0880F67
:100D30009A95EAF70E948A0B802F0E94770BC830A1
:100D4000E8F4D77081E001C0880FDA95EAF7DF9107
:100D5000CF911F910F91FF90EF90DF90CF90BF90B8
:100D6000AF900C94910B80E28C0F883038F4C770F0
:100D700081E001C0880FCA95EAF7E9CFDF91CF91F2
:100D80001F910F91FF90EF90DF90CF90BF90AF90A9
:100D900008950F939C01CB01243F4CE5340759F192
:100DA000A8F4293DFCE53F0701F12A3D4CE5340755
:100DB000D1F1283D3C4591F406E221EE41EE68ED8B
:100DC0007CE50E943E0680E00F910895263FFCE5F9
:100DD0003F07E9F0B0F0273F3C45F9F0FC01828184
:100DE000882339F11092AA01EFCF07E225EE45EEF4
:100DF00069ED7CE5E6CF06E221EE40EE64EF7CE5AE
:100E0000E0CF07E225EE44EE65EF7CE5DACF06E2BF
:100E100021EE42EE66EF7CE5D4CF07E225EE46EE0A
:100E200067EF7CE5CECF08E221E045EE6AED7CE598
:100E3000C8CF81E0C9CFCF93DF93EC01FB01828162
:100E4000882309F419C1C230FCE5DF07C0F1C631BF
:100E50009CE5D90730F09E012B5F3C4529303105D8
:100E600070F50E9457149093780280937702C031F6
:100E7000ECE5DE0709F4CFC008F05BC0C8308CE5B4
:100E8000D80709F4B6C088F5C430ECE5DE0709F4EC
:100E9000A8C0C0F4C2308CE5D80709F49CC080918A
:100EA00077028260C330DC4509F498C080917702F4
:100EB000909178020E9465140E94060E80E0DF91F6
:100EC000CF910895809177028061C630ECE5DE070E
:100ED00009F484C0809177028860C730DC4508F44B
:100EE0007DC080917702806279C0CC308CE5D807D4
:100EF00009F489C070F4809177028C60CA30ECE507
:100F0000DE0709F46BC008F478C0809177028E7F09
:100F100065C0CE308CE5D80709F479C0809177029E
:100F20008B7FCF30DC4508F459C0809177028F7EEB
:100F300055C0CC3FECE5DE0709F457C030F5C331AE
:100F40008CE5D80709F46FC078F4C131ECE5DE0711
:100F500009F465C0C231DC4509F0A8CF0E94060E35
:100F6000809177028F773AC0C5318CE5D80709F4B4
:100F700062C008F476C0809178028160CB3FDC4586
:100F800009F094CF8093780291CFC115FDE5DF077A
:100F900009F44DC088F4809178028D7FCE3F9CE5A6
:100FA000D90781F3809178028E7FCF3FDC4550F3E3
:100FB000809178028360E6CFC230FDE5DF0709F457
:100FC00059C008F444C080E0C330DD4509F06ECF5D
:100FD0000E94EA146BCF8091770281608093770240
:100FE00065CF809177028460F9CF8091780282602A
:100FF000C9CF809177028064F1CF0E94060E809164
:1010000077028068EBCF809177028D7FE7CF809168
:101010007702877FE3CF809177028F7DDFCF80914A
:1010200077028F7BDBCF80917702837FD7CF809150
:1010300078028C7FA7CF8091770282FB992790F965
:1010400021E0922790FB82F990FB83F9C7CF809132
:101050007802982F909591708E7F892B90FB81F963
:1010600091CF0E94060E90917702892F97FB87F906
:101070008058B4CF81E0ACCF81E021CFCF93DF9314
:10108000EB0186319C4511F50E948B139A819923BF
:1010900099F08A7A91E009F490E09093AB01811184
:1010A00009C089E20E9466130E94D71380E0DF9195
:1010B000CF91089585E3F6CF8091AB01811104C0F3
:1010C00089E20E946D13F0CF85E3FBCF81E0EFCF83
:1010D0008EE1489B02C08150E1F7489BFECF089506
:1010E000589880E28A95F1F7589A0895FC013BE000
:1010F0003A95F1F798E020E080E031E040E14A9550
:10110000F1F7880F489B02C08160232742E04A958F
:10111000F1F7000040E14A95F1F7915079F790E13D
:101120009A95F1F799B132E03A95F1F7000040E174
:101130004A95F1F7917092272081920F908308953C
:10114000EF92FF920F931F93CF93DF930F92CDB740
:10115000DEB719828C017C01E60EF11C0E151F050D
:1011600061F481E09981911180E00F90DF91CF913E
:101170001F910F91FF90EF9008950E946808CE0193
:1011800001960E947608F80181938F01E7CF909332
:10119000AD018093AC01509A589A08959093AD0197
:1011A0008093AC015098589AE89AE9E6F0E0808183
:1011B0008C7F808308956150770B91E001C0990F77
:1011C0006A95EAF720E031E0911108C0222391F0FE
:1011D000589A80E28A95F1F758980895492F482344
:1011E00039F0589A232740E24A95F1F79695ECCFCB
:1011F0005898F9CF5898EDCFFF920F931F93CF9344
:10120000DF93EC018C01060F111DC017D10731F4DB
:10121000DF91CF911F910F91FF900895F9900E9457
:10122000700868E08F2D0E94DB08EFCF1F920F92AD
:101230000FB60F9211242F933F934F935F936F93A9
:101240007F938F939F93AF93BF93CF93DF93EF934E
:10125000FF935898509AC091AC01D091AD016D8127
:10126000662321F08E819F810E94FC080E947008F5
:1012700080E18A95F1F758985098589A80E18A95BC
:10128000F1F76A81662309F18B819C810E94A00895
:10129000E881F981882311F088E001C082E0808331
:1012A0000E946808FF91EF91DF91CF91BF91AF91BC
:1012B0009F918F917F916F915F914F913F912F916E
:1012C0000F900FBE0F901F901895E881F981E4CF21
:1012D000CF93DF93C091AC01D091AD01F894509AB7
:1012E000589885E08A95F1F700005098589A80E266
:1012F0008A95F1F7489B0CC0509A589AE881F98179
:1013000081E08083789481E090E0DF91CF9108952F
:101310006D81662381F08E819F810E94A0088111DA
:101320000AC0509A589AE881F98182E080837894C3
:1013300082E090E0EACF0E94680880E28A95F1F7A7
:101340005898509A80E18A95F1F76A81662321F0D6
:101350008B819C810E94FC080E947008E881F981C1
:101360001082789490E080E0D0CF9093B301809386
:10137000B2010895E091B201F091B301309721F0EC
:101380000190F081E02D099480E00895E091B20190
:10139000F091B301309721F00280F381E02D0994A0
:1013A0000895E091B201F091B301309739F022E055
:1013B000DC012C930480F581E02D0994089520919F
:1013C000B0013091B1012817390771F09093B10144
:1013D0008093B001E091B201F091B301309721F018
:1013E0000680F781E02D099408952091AE01309197
:1013F000AF012817390771F09093AF018093AE01C8
:10140000E091B201F091B301309721F00084F185B1
:10141000E02D0994089585B7806885BF85B78068F9
:1014200085BF0895089508950C94120A08950C94A8
:10143000160A0E940B0A0E94130A0C94140A0C94B8
:10144000DB05089508950E94BD150E94BA040E940C
:1014500088160C94170ABF92CF92DF92EF92FF92F8
:101460000F931F93CF93DF93CDB7DEB72A970FB6B5
:10147000F894DEBF0FBECDBF0E94210A0E94220A4F
:101480000E942C050E941F0A882309F45EC085EB88
:10149000C82E81E0D82E10E000E0B02E802F0E94F0
:1014A0009704E82EF601F1906F01F81609F447C091
:1014B00080913C0281FD0E949D049F2D9E2580E02D
:1014C000FF24F394292F2F21B1F18E83BF82EF20C7
:1014D00081E009F480E088870E94C6158160782F3A
:1014E0009A8789874E815F8168858A850E94C60AAE
:1014F000F801EB54FE4F8081F826F0820E943619E5
:101500000E94BA099091B401891781F10E94BA0929
:101510008093B4012A960FB6F894DEBF0FBECDBFFC
:10152000DF91CF911F910F91FF90EF90DF90CF90BF
:10153000BF900C947C028F5FFF0C863019F60F5F12
:101540001F4F0C30110509F0A8CF8FEF89838A83D4
:101550001B820E94C6158160782F9D838C834981F0
:101560005A816B818D810E94C60AC8CF2A960FB618
:10157000F894DEBF0FBECDBFDF91CF911F910F91C9
:10158000FF90EF90DF90CF90BF900895CF93DF93BF
:10159000CDB7DEB72B970FB6F894DEBF0FBECDBF29
:1015A0004F83588769877A878B871E821D8285E0E3
:1015B000FE013796DE01119601900D928A95E1F7B2
:1015C00049815A816B817C818D819E812B960FB6DA
:1015D000F894DEBF0FBECDBFDF91CF910C947F108A
:1015E000FC01808191810C943813CF93C82F8823FC
:1015F00009F44CC08CEF8C0F813AC8F48C2F0E94F8
:10160000BB1B811143C06C2F8091090190910A018D
:101610000E940115882329F08C2F0E946D130E94CF
:10162000D7138C2F0E946613CF910C94D71380E2AE
:101630008C0F883048F4C77081E001C0880FCA95CC
:10164000EAF70E948E13F0CFEBE5EC0FE33040F4A5
:10165000F0E0E157FE4F808190E0CF910C94DF09DC
:10166000E8E5EC0FE73150F4F0E0EE0FFF1FEF5923
:10167000FE4F80819181CF910C94F509C03F30F0ED
:101680008C2F0E943018CF910C941B19CF91089584
:10169000882361F19CEF980F913A20F40E946D131A
:1016A0000C94D71390E2980F983050F4877091E023
:1016B00001C0990F8A95EAF7892F0E949413F0CF01
:1016C0009BE5980F933020F490E080E00C94DF09C4
:1016D00098E5980F973120F490E080E00C94F5099C
:1016E000803F20F00E9498180C941B190895CF9306
:1016F000C82F0E94F50AC93349F42FEF87EE93E013
:10170000215080409040E1F700C000008C2FCF9125
:101710000C94480B882321F00E948E130C94D7134D
:101720000895882321F00E9494130C94D7130895F0
:10173000BF92CF92DF92EF92FF920F931F93CF93BE
:10174000DF936C01D62FC72FFC01058102950F7026
:10175000128111110E94AB130E948413E82E88237A
:1017600091F01123D1F08C2F807F803421F080E222
:101770008D0F883090F082E00E9422140E94841322
:1017800091E0E82EE926BC2EB2949FE0B922EB2D21
:10179000F0E0EE59FC4D0C940423E12CF4CF0C2F17
:1017A0000F70C07F11F00295007F1123A9F0002374
:1017B00059F080E28D0F883010F0D11109C0802FD0
:1017C0000E948E130E94D7138D2F0E94F50A14C019
:1017D000802F0E949E13F6CF8D2F0E94480B00236E
:1017E00059F080E28D0F883010F0D1112CC0802F7D
:1017F0000E9494130E94D7132B2D2850330B2430B2
:10180000310520F40E94BA090E947C02EE2009F4FE
:101810009EC10E94801380FD9AC1F60112820E942F
:101820007A130E940312C6010E94C80D0E947A1307
:10183000DF91CF911F910F91FF90EF90DF90CF90AC
:10184000BF900C942412802F0E94A413D3CFFC2F9E
:10185000FF70FF2EC07FC03219F0F29480EFF822A3
:10186000DD2369F0D13049F1112391F1002351F1C9
:10187000F601858180FFA8CF8F70858323C0112357
:1018800081F0011106C00E94BE138F290E948A0BAD
:10189000B3CF0130C1F70E94BE138F290E94C41339
:1018A000ABCF011106C00E94CD138F2D0E94910B6A
:1018B000A3CF013009F4A0CFF6CF112329F00630D1
:1018C00008F09ACF8F2DE2CF053008F095CFEDCFFD
:1018D000002359F3D93349F4FFEF27EE33E0F150F9
:1018E00020403040E1F700C000008D2F0E94480BDF
:1018F00083CF8C2F86958695837069F0813009F0AF
:101900007BCF8D2F9C2F9370111102C090E080E04F
:101910000E94F50971CF8D2F9C2F9370111102C079
:1019200090E080E00E94DF0967CF8D2F112329F01E
:101930000E9430180E941B195FCF0E949818FACF9E
:101940008C2F837009F041C0111156CF4D2F429555
:1019500046954770440F440F0D2F0F7010E030E094
:1019600020E0042E04C0000F111F221F331F0A9411
:10197000D2F760E070E0CB01D4FF0FC06FE070E001
:1019800080E090E004C0660F771F881F991F4A957A
:10199000D2F76095709580959095C695C695C37061
:1019A000602B712B822B932BC23049F058F4C1303D
:1019B00019F00E94B51120CF0E94A3111DCF0E94E3
:1019C000C7111ACF0E94A11117CF8695112311F0CC
:1019D0008C2F8170882309F40FCF4D2F42954695A7
:1019E0004770440F440F0D2F0F7010E030E020E0DF
:1019F000042E04C0000F111F221F331F0A94D2F7B8
:101A000060E070E0CB01D4FF0FC06FE070E080E0D9
:101A100090E004C0660F771F881F991F4A95D2F780
:101A20006095709580959095C695C695C370602B0E
:101A3000712B822B932BC23049F058F4C13019F02E
:101A40000E947A12D9CE0E946812D6CE0E948C12C1
:101A5000D3CE0E94DD11D0CECF70112329F08C2F70
:101A60000E9403128D2F12CF8D2F0E94910B8C2F6D
:101A70000E942412C1CED23F89F160F4D03FC9F058
:101A8000D13F29F1112309F442C001119DCE8C2FC1
:101A90008F7121C0D33F39F1D43FA1F7112369F1F0
:101AA000CF718C2F0E94031263E08C2F0E940D14C3
:101AB000A3CE112341F0053008F09ECE8C2F8F71FC
:101AC0000E94471299CE063008F096CEF7CF8C2FA1
:101AD0008F71112369F20E9403128ECE8C2F8F71A9
:101AE0001123C9F3C5CF112329F08C2F8F710E94C8
:101AF000EE1182CE0E94E9117FCE81E00E94221475
:101B0000023008F479CE82E00E94221475CE0023C0
:101B100059F0D93309F0E9CE8FEF97EEE3E0815029
:101B20009040E040E1F7DFCE8C2F8F71A1CF4C2F9A
:101B30004F706D2FC6010E9484020E9419115CCE65
:101B40004C2F4F706D2FC6010E94870255CEDF913A
:101B5000CF911F910F91FF90EF90DF90CF90BF90AA
:101B600008950F931F93CF93DF93EC0168817981E0
:101B70008A810E9442138C010E949E120E94A01131
:101B8000B801CE01DF91CF911F910F910C94980B6A
:101B9000CF93DF93EC018B819C81892B29F0888185
:101BA000998189238F3F59F4DF91CF910895CE0118
:101BB0000E94B10DCE01DF91CF910C941402CE01A1
:101BC0000E9439028111F3CF0E948413882361F3AC
:101BD0008A81882349F382E0DF91CF910C9422140B
:101BE0000E94AB130E94BB130E94D7130E94421A9B
:101BF0000E941B1990E080E00E94DF0990E080E0E5
:101C00000C94F5090E9474130C94F00D0E949B1320
:101C10000C94020EE92FE295EF70E250EE3070F472
:101C2000F0E0EE58FC4D0C940423803F19F020F4B2
:101C3000883E20F481E00895843FE1F380E0089538
:101C4000883EC0F3813FD1F7F5CF93FB882780F919
:101C500008950E9438130C940A0ECF93DF9300D09E
:101C600000D00F92CDB7DEB70F900F900F900F906E
:101C70000F90DF91CF910895CF93DF9300D000D0E4
:101C800000D0CDB7DEB726960FB6F894DEBF0FBEF4
:101C9000CDBFDF91CF9108951F93CF93DF93C09174
:101CA000C20116E08091C3018C1304C0DF91CF9173
:101CB0001F910895D0E01C9FF0011D9FF00D11248D
:101CC000EC53FE4F40815181628173818481958103
:101CD0000E943C0E2196C770E5CF4091F4015091CF
:101CE000F5016091F6017091F7018091F8019091F2
:101CF000F9010C943C0E1F93CF93DF938091F9016F
:101D0000807FA9F48091F601882389F08091C20137
:101D1000C091C3016091F4017091F501A091F701A8
:101D2000B091F801D62FD72316E0C81304C0DF9175
:101D3000CF911F91089590E0109711F0DF3F19F4B3
:101D400001968770F2CF189F9001199F300D1124D2
:101D5000F901EC53FE4F41814713F2CF4081461306
:101D6000EFCF42814111ECCF438154814A1B5B0B81
:101D7000483C510528F78091F9018F70806180936C
:101D8000F901F901E753FE4F80818F7080618083F4
:101D900084EF91E00E94C80DDF91CF911F910C94C8
:101DA0004C0EAF92BF92CF92DF92EF92FF920F93C1
:101DB0001F93CF93DF93CDB7DEB761970FB6F8943B
:101DC000DEBF0FBECDBF8C0185E0F801DE011D96A0
:101DD00001900D928A95E1F7F80140815181E280EE
:101DE00084EFC82E81E0D82E6091F7017091F80140
:101DF0006115710509F461C19091F4012091F5011B
:101E0000892F82238F3F09F458C1A380B480F090BA
:101E1000F601F501E61BF70BFF2009F4FCC08091E9
:101E2000F901382F307FE83CF10508F0B2C03111DC
:101E300079C0FE2C251323C0941321C0E1101FC0CC
:101E40008F7080618093F9010E946D0EC6010E941F
:101E5000C80D8091F901F80185838F2D61960FB629
:101E6000F894DEBF0FBECDBFDF91CF911F910F91D0
:101E7000FF90EF90DF90CF90BF90AF900895AB2888
:101E800029F0842F85238F3F09F033C180E0F82F9C
:101E9000F170DF2E80FF3CC08091C2012091C30110
:101EA00036E0821315C04D875E878D859E850E9422
:101EB0003813292F22952F702230F0F0243018F596
:101EC0009F70F1F0F8019581907FD1F4D12C1EC064
:101ED00090E0389FF001399FF00D1124EC53FE4F34
:101EE0006181651306C06081641303C062816E1155
:101EF0000FC001968770D5CF9F7011F0882331F302
:101F0000805E883018F3C8010E94C80DFD2CA5CF53
:101F1000EE2009F4A2CF8091F90181608093F9014C
:101F2000F12C9BCF251306C0941304C0F801EE20BA
:101F300009F48DC04D875E878D859E850E94290E90
:101F4000882319F1EE2009F18091F901803270F0B7
:101F50002091F4013091F50138872F831986BB86D3
:101F6000AA868C87CE0107960E94C80D86E0F801EC
:101F7000A4EFB1E001900D928A95E1F70E947B0EEB
:101F80000E946D0EFF24F39468CFC8010E94C80D13
:101F9000F9CF311113C07A2DB98AA88A6E2D89899B
:101FA0000E942D0E84EF91E00E94C80D86E0F6019C
:101FB00011928A95E9F70E946D0EB2CF25130FC0DA
:101FC00094130DC0E1100BC0F8018583C8010E9475
:101FD000C80D86E0F60111928A95E9F73ECF4D874C
:101FE0005E878D859E850E94290E882371F2EE20E2
:101FF00061F28091F901803208F4B8CF2091F401A8
:102000003091F5013A8329831B82BD82AC828E8395
:10201000CE010196A9CFE83CF10508F041C0FE2CA5
:10202000EE2009F4B2CF25132AC0941328C0809162
:10203000F90180FD1BC0982F907FC1F0F8018583C6
:10204000903F31F0982F907F905F8F70892B858320
:10205000C8010E94C80D86E0F801A4EFB1E001902C
:102060000D928A95E1F70E946D0EF7CE86E0F80199
:10207000A4EFB1E001900D928A95E1F7EECE4D8785
:102080005E878D859E850E94290E81116FCF80917C
:10209000F90181608093F901C8010E94C80DDDCE6D
:1020A0007A2DB98AA88A6E2D89890E942D0E86E024
:1020B000F60111928A95E9F7D6CFEE2009F465CFA3
:1020C0004D875E878D859E850E94290EF82E882378
:1020D00009F45BCF86E0F801A4EFB1E001900D9226
:1020E0008A95E1F784EF91E00E94F00A0E947B0E4E
:1020F000BACF81E08E25CBCE88EC90E008951F9377
:10210000CF93DF93CDB7DEB72C970FB6F894DEBF31
:102110000FBECDBF4F83588769877A878B879C878F
:10212000CE0107960E94D10E882369F08A859B858F
:10213000892B39F04F815885842F85238F3F09F0F3
:1021400071C016E05FC086E0FE013796DE01119691
:1021500001900D928A95E1F78A859B85892B89F3F9
:102160008F81988589238F3F61F32091C30130E0EF
:10217000C9010196877099274091C2014817190635
:1021800071F40E94060E1092C3011092C20186E003
:10219000E4EFF1E0DF011D928A95E9F7D2CF96E0F6
:1021A000929FD001939FB00D1124AC53BE4FFE01FE
:1021B000319601900D929A95E1F78093C3010E94A8
:1021C0004C0EBFCF819FC00111248C539E4F0E94A3
:1021D000D10E8823E9F0E091C2011E9FF001112485
:1021E000EC53FE4F408151816281738184819581DE
:1021F0000E943C0E8091C20190E001968770992761
:102200008093C2018091C2019091C3018913DACFFA
:102210002C960FB6F894DEBF0FBECDBFDF91CF91E5
:102220001F91089569857A858B859C850E943C0E57
:1022300088CFEF92FF920F931F93CF93DF938C0180
:10224000892B81F0F12CEE24E394E8012196F8012A
:102250008491843770F4843008F05FC08130B1F02D
:102260008230A1F1DF91CF911F910F91FF90EF90FC
:102270000895853709F44CC008F43DC09CE7980FD9
:10228000903780F78F770E94480B49C00E5F1F4F31
:10229000FE01849190E2980F983060F48770FE2DD3
:1022A00001C0FF0F8A95EAF78F2F0E94AE130E949C
:1022B000D71302C00E94F50A8F2D815030F2EFE94A
:1022C000FFE03197F1F700C00000F7CF0E5F1F4F1E
:1022D000FE01849190E2980F983050F48770FE2DA3
:1022E00001C0FF0F8A95EAF78F2F0E94B413DFCF4A
:1022F0000E94480BE1CF0E5F1F4FFE01C491C150F9
:10230000D8F28FE99FE00197F1F700C00000F7CF06
:102310000E5F1F4FFE01F490CFCF0E94F50A8E0191
:10232000CBCF08950C9491110E94921160932B02CF
:1023300070932C0280932D0290932E020C94F00D3A
:1023400008950C9494110F931F9300912B021091F8
:102350002C0220912D0230912E02602B712B822BAA
:10236000932B1F910F910C9494110F931F93009135
:102370002B0210912C0220912D0230912E0260230D
:102380007123822393231F910F910C9494110F9327
:102390001F9300912B0210912C0220912D0230915D
:1023A0002E0260277127822793271F910F910C948B
:1023B00094110C9491110C94D9110E94DB1160932B
:1023C0002702709328028093290290932A020C948A
:1023D000F00D60E070E0CB010C94DD110F931F93C2
:1023E00041E050E060E070E08A019B0104C0000F12
:1023F000111F221F331F8A95D2F7C901B8011F91FF
:102400000F910C94DD110F931F9341E050E060E0B9
:1024100070E004C0440F551F661F771F8A95D2F7DE
:102420008091270290912802A0912902B0912A025E
:102430008A019B01082B192B2A2B3B2BC901B801C0
:102440001F910F910C94DD110F931F9341E050E009
:1024500060E070E004C0440F551F661F771F8A9527
:10246000D2F7CB01BA016095709580959095009157
:102470002702109128022091290230912A0260231C
:102480007123822393231F910F910C94DD110F93DD
:102490001F9341E050E060E070E004C0440F551F1E
:1024A000661F771F8A95D2F78091270290912802A4
:1024B000A0912902B0912A028A019B0108271927BD
:1024C0002A273B27C901B8011F910F910C94DD11F8
:1024D0000F931F9300912702109128022091290247
:1024E00030912A02602B712B822B932B1F910F911D
:1024F0000C94DD110F931F93009127021091280275
:102500002091290230912A02602371238223932390
:102510001F910F910C94DD110F931F9300912702CF
:10252000109128022091290230912A0260277127F8
:10253000822793271F910F910C94DD110895E92FA5
:10254000EE0FE90FEE0F8E0F982F977041E001C04C
:10255000440F9A95EAF786958695869595E0899F2A
:10256000F0011124E650FE4F30E020E070E0519180
:10257000DF011197CB01022E02C0969587950A9430
:10258000E2F7817081958527842385278C932F5FBF
:102590003F4F2530310559F70895E92FEE0FE90F28
:1025A000EE0F8E0F982F977086958695869525E06D
:1025B000829FF0011124E650FE4F50E040E080E0A1
:1025C000219130E0092E02C0369527950A94E2F752
:1025D00021703327042E01C0220F0A94EAF7822BC0
:1025E0004F5F5F4F4530510559F70895BF92CF9225
:1025F000DF92EF92FF920F931F93CF93DF938C01A3
:10260000C0902702D0902802E0902902F0902A0280
:1026100080912B0290912C02A0912D02B0912E025C
:10262000C82AD92AEA2AFB2ACFE1D0E0BC2ED7015A
:10263000C6010C2E04C0B695A795979587950A9468
:10264000D2F780FD0EC0219788F7B12C8B2DDF913A
:10265000CF911F910F91FF90EF90DF90CF90BF909F
:102660000895B8018C2F0E94A402019761F3EECF68
:10267000CF93DF93EC010E94F612BE01DF91CF9160
:102680000C94A4021F93CF93DF93EB019091C101AF
:10269000992331F0CB01DF91CF911F910C94381326
:1026A000882379F0CB010E94F612182F682FCE01F3
:1026B0000E949F12BE01812FDF91CF911F910C9438
:1026C000A402CB010E94CD12182FF4CF682F809165
:1026D000090190910A010C943715682F8091090126
:1026E00090910A010C9439158091090190910A0189
:1026F0000C943B1580912F028595859585950895BD
:1027000080912F028770089590912F02977081E039
:1027100009F480E0089580913B02089590913B0276
:10272000892B80933B020895809590913B029823DA
:1027300090933B02089510923B02089590913A02C3
:10274000892B80933A020895809590913A029823BC
:1027500090933A02089510923A02089590913902A6
:10276000892B80933902089580959091390298239E
:1027700090933902089510923902089580913002A1
:10278000089508950C94C11390913002981721F088
:10279000809330020C94C2130895809130028823F4
:1027A00029F01092300280E00C94C2130895E09159
:1027B0000901F0910A0180913B028083E0910901B7
:1027C000F0910A01808190913A02892B8083E091F7
:1027D0000901F0910A01808190913902892B80834F
:1027E00090913002992381F0E0910901F0910A0162
:1027F0008081892B80838091090190910A010E9438
:10280000EF1481110E94CD138091090190910A016A
:102810000C94C60908950C940A1498E0899F9001BD
:102820001124622B60932F020E94031280912F02C9
:102830008595859585950C940B1410922F0280E058
:102840000C940B1490912F028095892380932F0272
:10285000282F277071F4282F082E000C330B9217A5
:10286000130639F08595859585950E9424120C9460
:102870001D14089590E080E00E94262321E08C3E04
:102880009E4F09F020E0822F089582E090E00C94A2
:102890001E23682F82E090E00C942C2383E090E0CC
:1028A0000C941E23682F83E090E00C942C23CF938C
:1028B00084E090E00E941E23C82F81E290E00E94F5
:1028C0001E23982F8C2FCF910895CF93C92F682F57
:1028D00084E090E00E942C236C2F81E290E0CF9165
:1028E0000C942C23AB01BC018FE090E00C943E23B0
:1028F000AB01BC0183E190E00C943E2360E070E00A
:10290000CB010C94781460E070E0CB010E9472144B
:102910000C947E146CEE7EEF90E080E00E944A23DF
:1029200060E082E090E00E942C2360E083E090E091
:102930000E942C2310922B0210922C0210922D0236
:1029400010922E0260E084E090E00E942C2360E070
:1029500081E290E00E942C2360E085E090E00E94FC
:102960002C2360E086E090E00E942C236FEF87E04C
:1029700090E00E942C2340E050E0BA0188E090E013
:102980000E943E2360E08DE090E00E942C2340E016
:1029900050E0BA0188E190E00E943E2360E087E1C8
:1029A00090E00E942C2340E050E0BA018CE190E0DE
:1029B0000E943E2360E080E290E00E942C2340E0F1
:1029C00050E0BA0188E190E00E943E230C94831409
:1029D0000C948A14682F8EE090E00C942C239C01B8
:1029E0002E5F3F4FAC01485F5F4F80E024173507F3
:1029F00009F40895F90191919F019923B9F38F5F2B
:102A0000F5CF662349F0FC013296089621912617EE
:102A100029F0E817F907D1F780E0089581E00895DB
:102A20009C01FC0132969FEF80E04191461751F0E6
:102A30009F3F19F4411101C0982F8F5F8630A9F78D
:102A40009F3F09F40895290F311D97FD3A95F9012B
:102A500062830895FC01329608962191261303C0E3
:102A6000DF0111971C92E817F907B9F708950C9444
:102A700010150C942A15029626E0FC0111922A9555
:102A8000E9F70895089508950C9443150E9444159C
:102A900080917D02843049F110923D0288E190E0FE
:102AA00020E40FB6F894A895809360000FBE2093A1
:102AB000600080E00E947C020E94441583B7817F01
:102AC000846083BF83B7816083BF7894889583B720
:102AD0008E7F83BF0FB6F894A895809160008861BF
:102AE00080936000109260000FBE08950895CF9308
:102AF0000E9442150E942C050E947615C0E08C2F82
:102B00000E949704811105C0CF5FCC30C1F7CF91EF
:102B1000089581E0FCCF08950C948B150E94060E59
:102B20000E94BA090E947C020C948C151F921FB659
:102B30001F9211248F939F93AF93BF9380913D0277
:102B4000811113C08091710290917202A091730261
:102B5000B09174024196A11DB11D809371029093B2
:102B60007202A0937302B0937402BF91AF919F91D0
:102B70008F911F901FBE1F90189582E084BD93E037
:102B800095BD9AEF97BD80936E0008952FB7F89486
:102B90008091710290917202A0917302B0917402BF
:102BA0002FBF08959C014FB7F894809171029091C6
:102BB0007202A0917302B09174024FBF821B930BFB
:102BC000089578941F921FB61F9211248F939F939C
:102BD000AF93BF938091710290917202A0917302A2
:102BE000B09174020196A11DB11D80937102909362
:102BF0007202A0937302B0937402BF91AF919F9140
:102C00008F911F901FBE1F90189589E0E3E0F0E0C0
:102C100080935700E491F0E0CF018670892B51F149
:102C200080E09FE3909376028093750281E0809329
:102C3000E00080E28093D8001092C9008FE19EE40A
:102C40000197F1F700C0000087E090EBDC01809372
:102C5000860290938702A0938802B093890288E14C
:102C60009CE00FB6F894A895809360000FBE9093F7
:102C70006000FFCF80E09EE3E2FDD4CF80E09CE3E4
:102C8000E1FDD0CF80E098E3CDCFCF92DF92EF92FD
:102C9000FF920F931F93CF93C0E0E82EF12C8C2F5F
:102CA0000E94970410E000E0C82ED12CC601002E2F
:102CB00002C0959587950A94E2F780FD11C00F5FD9
:102CC0001F4F0630110591F7CF5FCC3041F780E000
:102CD000CF911F910F91FF90EF90DF90CF900895CB
:102CE000602F7C2F80E00E948802E816F90639F7F1
:102CF00081E0EECFCF93C82F8CE20E944516882347
:102D000021F08C2FCF910C94451680E0CF9108953F
:102D1000CF930E943A14811102C00E94E814C5E6C4
:102D200008C00E942C058FE39CE90197F1F700C0D1
:102D30000000C150B1F789E20E947A1681110BC1DF
:102D40008AE20E947A1681110E94E81485E00E94AE
:102D50007A1681110E9405160E94451480933C0248
:102D600087E00E947A16882371F08BE10E947A1620
:102D7000882309F4CDC090913C02892F8D7F91FF6B
:102D8000826080933C0280913C020E9449140E9420
:102D90005714909378028093770280EE0E947A16FF
:102DA000882341F090917702892F8E7F90FF816078
:102DB0008093770289E30E947A16882341F09091EC
:102DC0007702892F8D7F91FF82608093770282EE58
:102DD0000E947A16882341F090917702892F8B7F89
:102DE00092FF84608093770286EE0E947A16882391
:102DF00041F090917702892F877F93FF88608093BD
:102E0000770283EE0E947A16882341F09091770230
:102E1000892F8F7E94FF80618093770285E30E94E3
:102E20007A16882341F090917702892F8F7D95FF44
:102E300080628093770281E30E947A16882341F0B2
:102E400090917702892F8F7B96FF80648093770221
:102E500081E10E947A16882341F090917702892FB0
:102E600097FB87F980588093770280917702909141
:102E700078020E94651487E20E947A16C82F8EE1BC
:102E80000E947A168111C2608FE10E947A16811128
:102E9000C46080E20E947A168111C86081E20E94BB
:102EA0007A168111C06182E20E947A168111C06295
:102EB00083E20E947A168111C06484E20E947A162D
:102EC000882309F442C0C0688C2F0E9452146C2FD2
:102ED00070E090E080E00E94A11160912702709163
:102EE00028028091290290912A020E94DB118FE032
:102EF0000E947A16882319F081E00E94EA1485E185
:102F00000E947A16882339F180E0CF910C94EA145C
:102F10008EE00E947A16882339F090913C02892F26
:102F20008B7F92FF84602DCF80E10E947A16909172
:102F30003C02882329F0892F877F93FF886021CF67
:102F4000892F8E7F90FF81601CCFC111BDCF0E9461
:102F50004E14682FBDCFCF9108958091440280FF19
:102F600012C06091100185E0689FB0011124759531
:102F700067957595679560387105A8F561157105B8
:102F8000A1F1862F089581FF09C06091100185E0AD
:102F9000689FB001112475956795EDCF6091100180
:102FA00082FD0AC0809143028823D1F090910F01E5
:102FB00060911001891728F085E0689FB001112405
:102FC000DACF869FB001112485E0869F9001879F0C
:102FD000300D1124692F70E0C9010E94F022CBCF7F
:102FE00065E070E0CECF8FE7089581E0089580918D
:102FF000440280FF0CC060910C0170E075956795EC
:10300000759567956115710549F1862F089581FFC2
:1030100006C060910C0170E075956795F3CF6091E3
:103020000C0182FD0BC0909142029923A1F06091A6
:103030000B0180910C01961738F0682F70E0603812
:10304000710500F38FE70895899FC001112470E096
:103050000E94F022F4CF61E070E0D7CF81E00895C4
:10306000803F31F40E94AD17819580934802089506
:10307000813F19F40E94AD17F8CF823F31F40E94CE
:10308000AD178195809347020895833F19F40E94FC
:10309000AD17F8CF893F29F40E94F71780934902B2
:1030A00008958A3F21F40E94F7178195F7CF8B3F4F
:1030B00031F40E94F717819580934A0208958C3F5E
:1030C00019F40E94F717F8CF843F31F4809146023B
:1030D0008160809346020895853F21F480914602E5
:1030E0008260F7CF863F21F4809146028460F1CF61
:1030F000873F21F4809146028860EBCF883F21F41E
:10310000809146028061E5CF8D3F31F48091440289
:1031100081608093440208958E3F21F4809144029F
:103120008260F7CF8F3FB9F7809144028460F1CF7E
:1031300090914702803F59F48091480287FF0DC06B
:103140001092480291110BC01092430208C0813FB7
:1031500081F48091480218169CF3992381F08091A4
:10316000490290914A02892B09F064C010924202F0
:103170000895823F49F497FFF0CF10924702809163
:1031800048028111ECCFE0CF833F19F41916ACF35C
:10319000E4CF20914902893F29F41216F4F61092E7
:1031A0004902DBCF8A3F19F427FFD7CFF8CF209110
:1031B0004A028B3F29F427FFD0CF10924A02CDCF8D
:1031C0008C3F19F41216CCF3C8CF843F31F48091B0
:1031D00046028E7F80934602C0CF853F21F48091C6
:1031E00046028D7FF7CF863F21F4809146028B7F88
:1031F000F1CF873F21F480914602877FEBCF883F54
:1032000021F4809146028F7EE5CF8D3F31F480918D
:1032100044028E7F80934402A0CF8E3F21F48091A0
:1032200044028D7FF7CF8F3F09F097CF8091440202
:103230008B7FF0CF08950E94C6159C0190914702A4
:1032400080914802982B21F0309341022093400254
:103250009091490280914A02982B21F030933F02CD
:1032600020933E0285E492E00C94D109EF92FF9204
:103270000F931F93CF93DF9300D000D000D0CDB732
:10328000DEB786E0E5E4F2E0DE01119601900D92F2
:103290008A95E1F7E0904702F090480200914902D8
:1032A00010914A021092470210924802109249026D
:1032B00010924A028E2D8F2991F0809140029091B8
:1032C00041020E94D215AC0190914302992309F466
:1032D0003FC0809111018417150608F447C0802F64
:1032E000812B91F080913E0290913F020E94D21575
:1032F000AC0190914202992309F477C080910D01AD
:103300008417150608F47FC0809147029091480207
:10331000892B90914902892B90914A02892B11F0B7
:103320000E941B1986E0FE013196A5E4B2E00190EF
:103330000D928A95E1F726960FB6F894DEBF0FBE80
:10334000CDBFDF91CF911F910F91FF90EF90089526
:10335000209112018AE0289F90011124241735073B
:1033600008F0BDCF9F5F9093430202C09F3FD1F70B
:10337000EE2059F00E94AD179FEF1E140CF491E05F
:10338000899F802D112480934702FF2059F00E94CD
:10339000AD179FEF1F140CF491E0899F802D11242D
:1033A0008093480230914702332309F498CF20914B
:1033B0004802222309F493CF45EB3403C0011124C2
:1033C000992359F09093470245EB2403900111246F
:1033D000332339F03093480282CF81E08093470253
:1033E000F3CF81E0809348027ACF20910E018AE0EA
:1033F000289F900111242417350708F085CF9F5F7F
:103400009093420202C09F3FD1F7002359F00E94DF
:10341000F7179FEF10160CF491E0899F802D11246F
:1034200080934902112359F00E94F7179FEF11165C
:103430000CF491E0899F802D112480934A023091F1
:103440004902332309F460CF20914A02222309F470
:103450005BCF45EB3403C0011124992359F09093BD
:10346000490245EB240390011124332339F03093B2
:103470004A024ACF81E080934902F3CF81E08093F2
:103480004A0242CF86E0E5E4F2E0DF011D928A9530
:10349000E9F71092430210924202109244020895FA
:1034A000833081F128F4813059F08230D1F00895D1
:1034B000853009F449C0B8F1863009F456C0089542
:1034C00080911201482F460F5527551F4F3F510538
:1034D00024F4680F6093120108958FEF8093120116
:1034E000089580911101482F460F5527551F4F3FD2
:1034F000510524F4680F6093110108958FEF8093B4
:103500001101089580911001482F460F5527551F2E
:103510004F3F510524F4680F6093100108958FEF19
:1035200080931001089580910F01482F460F552771
:10353000551F4F3F510524F4680F60930F01089504
:103540008FEF80930F01089580910C01482F460F53
:103550005527551F4F3F510524F4680F60930C0108
:1035600008958FEF80930C01089580910B01482FEF
:10357000460F5527551F4F3F510524F4680F6093A0
:103580000B0108958FEF80930B010895833011F1A3
:1035900028F4813049F0823091F00895853081F12E
:1035A00020F18630C1F1089580911201681720F44E
:1035B000861B809312010895109212010895809144
:1035C0001101681720F4861B809311010895109251
:1035D0001101089580911001681720F4861B8093D3
:1035E0001001089510921001089580910F0168173D
:1035F00020F4861B80930F01089510920F01089507
:1036000080910C01681720F4861B80930C010895AB
:1036100010920C01089580910B01681720F4861B0D
:1036200080930B01089510920B0108950F931F933F
:1036300041E050E060E070E08A019B0104C0000FAF
:10364000111F221F331F8A95D2F7C901B8010E94AA
:10365000A1111F910F910C94060E8B3109F461C0DA
:1036600040F58B3071F078F4863009F443C020F4D3
:10367000853059F180E00895873009F444C08830DE
:10368000C9F781E00895803109F459C068F48E309B
:1036900089F790913C02892F8B7F92FF8460809301
:1036A0003C0282FD48C0EDCF863159F3893149F3A0
:1036B000E1CF8A32E1F060F48732A9F020F48E3154
:1036C000C8F28D5111C08932A9F60E942A02D9CFC1
:1036D000833438F48A33F0F5853329F0883389F25E
:1036E000C9CF833439F680E00E94161BCACF0E94EE
:1036F000E814C7CF80913C02807F80933C0281E038
:1037000080934C02089590913C02892F8E7F90FF08
:10371000816080933C0280FDB4CF817F80933C0226
:10372000B0CF90913C02892F8D7F91FF8260809372
:103730003C0281FFA6CF80913C028160EFCF909147
:103740003C02892F877F93FF886080933C0283FD32
:10375000F2CF97CF8953C8CF80E008950C94AC1B6B
:103760008E518A3030F4E82FF0E0EE56FE4F808123
:10377000089580E00895CF93C82F80914C02813046
:10378000B9F0882331F08230A1F110924C0280E030
:103790000DC00E948B138232D1F78C2F0E94AC1B7C
:1037A00081111BC08C2F0E942D1B8170CF91089519
:1037B0000E948B13823289F38C2F0E94AE1B8111E1
:1037C0000AC0C43199F060F4CB3029F0C03169F7F8
:1037D00082E080934C0281E0E8CF81E090E0E5CF89
:1037E000C93221F0C833B9F380E0DFCF10924C0228
:1037F000FBCFC93219F188F4C43101F120F4C7308C
:1038000081F181E0D3CF82EE8C0F8630D0F78C2F00
:103810000E94B01B80934B02F4CFCE3401F140F4F0
:103820006AE0CB3471F780914B020E94501AE9CFC5
:10383000C13579F061E0C235B1F3E3CF80914B023D
:10384000882319F010924B02DCCF81E080934C0268
:10385000ADCF61E080914B020E94C61AD2CF6AE0E0
:10386000F9CF8EE18093120182E3809311018AE007
:103870008093100184E180930F0188E080930C0114
:1038800088E280930B01BDCF809155020895CF93BC
:10389000DF9300D00F92CDB7DEB790917D029430C8
:1038A00019F589837B836A8382E08093E9008FEF37
:1038B0009091E800815095FD06C095ED9A95F1F73D
:1038C00000008111F5CF8091E80085FF0DC050E028
:1038D00040E063E070E0CE0101960E945F1E80919F
:1038E000E8008E778093E8000F900F900F90DF91A3
:1038F000CF910895BC0184E00C94471CBC0183E087
:103900000C94471C9C0182E08093E9009FEF80911A
:10391000E800915085FD06C085ED8A95F1F700001D
:103920009111F5CF8091E80085FF0CC050E040E098
:1039300066E070E0C9010E945F1E8091E8008E770A
:103940008093E8000895CF93DF93EC0181E08093AA
:10395000E9008FEF9091E800815095FD06C095ED4C
:103960009A95F1F700008111F5CF8091E80085FF6D
:1039700014C050E040E068E070E0CE010E945F1E9D
:103980008091E8008E778093E80088E0FE01ADE446
:10399000B2E001900D928A95E1F7DF91CF91089501
:1039A00080917C02811109C00E94EF1F0E944C206F
:1039B0008091E20084608093E200089510927C027E
:1039C0000895089508950C948E1542E061EC81E00D
:1039D0000E946B1F42E261EC82E00C946B1F8091AD
:1039E0007F02833009F45FC030F48130C1F182304E
:1039F00009F49BC008958A3009F487C08B3009F41C
:103A00006DC0893009F04EC080917E02813209F08C
:103A100049C08091820290918302029708F042C0CF
:103A20008091E800877F8093E8008091E80082FF22
:103A300035C09091F3008091F200029729F48091B3
:103A4000F1008B7F813021F48091F1008093550249
:103A50008091E8008B778093E8000C949F1F809101
:103A60007E02813AF9F48091E800877F8093E80034
:103A70008091820290918302892B61F468E08DE449
:103A800092E070E00E94AE1E8091E8008B778093F8
:103A9000E800089560E090E080E0F3CF80917D023F
:103AA0008111C3CF089580917E02813AD9F7809128
:103AB000820290918302892BA9F78091E800877F89
:103AC0008093E8008091E80080FFFCCF80911D0189
:103AD0008093F1008091E8008E77BDCF80917E02C7
:103AE000813201F78091820290918302892BD1F675
:103AF0008091E800877F8093E8000E949F1F80915B
:103B0000800280931D010C94060E80917E0281320A
:103B100049F68091E800877F8093E8000E949F1F0C
:103B20008091810280935602089580917E02813AAD
:103B300009F0B8CF8091E800877F8093E8008091FA
:103B4000E80080FFFCCF80915602C2CF84B7877F08
:103B500084BF0FB6F894A895809160008861809327
:103B60006000109260000FBE80E890E00FB6F894FD
:103B700080936100909361000FBE0E94190A0E9419
:103B8000EF1F0E944C208091E20084608093E2004D
:103B900078940E94D5220E94230A83E191E00E943A
:103BA000B50980917D02853039F00E942B0A0E9470
:103BB000210A0E94220AF5CF0E94461580917B02BD
:103BC000882379F30E947715882359F30E94491EB0
:103BD000E8CF0C94EB1D292F33272330310519F141
:103BE00068F42130310509F44AC02230310509F466
:103BF0004BC090E080E030E020E028C02132310569
:103C000079F122323105A9F780E490E024EC32E02A
:103C100061157105D9F081E890E023E432E061306C
:103C20007105A1F0E6CF99278130910599F00097B1
:103C300041F08230910589F00397D9F6ECECF1E080
:103C400002C0E2EFF1E0849190E09F01FA0131833C
:103C500020830895E0EEF1E0F6CFE2EDF1E0F3CF5E
:103C600089E090E028E032E06115710579F389E0A0
:103C700090E021E232E06130710541F3BACF82E198
:103C800090E021E332E0E2CF8BE390E026EF31E0F9
:103C9000DDCF80E189BD82E189BD09B400FEFDCFA1
:103CA0008091D8008F7D8093D8008091E000826061
:103CB0008093E0008091E00081FDFCCF0895AF92F9
:103CC000BF92CF92DF92FF920F931F93CF93DF9318
:103CD0006C01EB018A010E94BE1FF82E811123C0E6
:103CE0000115110539F0F80180819181C81BD90BAC
:103CF000C80ED91EB12CA12C2097A9F08091E80004
:103D000085FD22C08091E8008E778093E800011540
:103D10001105A1F0F80180819181A80EB91EB18230
:103D2000A08285E0F82E8F2DDF91CF911F910F910A
:103D3000FF90DF90CF90BF90AF9008950E94BE1F7C
:103D40008823D1F2F82EEFCFF60181916F01809395
:103D5000F1002197FFEFAF1ABF0ACECFFC0180918F
:103D600084029091850286179707A0F0611571056E
:103D700029F49091E8009E779093E80090E0611517
:103D8000710551F4911108C08091E80082FF34C0A0
:103D900080E00895BC01F2CF80917D028823C1F1BB
:103DA0008530C1F18091E80083FD30C08091E8004A
:103DB00082FDEACF8091E80080FFE1CF8091F3009F
:103DC0002091F200382F6115710519F02830310566
:103DD00058F091E02830310509F090E02091E8009A
:103DE0002E772093E800CBCF81918093F100615032
:103DF00071092F5F3F4FE7CF80917D02882341F00B
:103E0000853041F08091E80083FFBECF81E00895C6
:103E100082E0089583E00895FC01809184029091EE
:103E2000850286179707A0F06115710529F4809126
:103E3000E8008E778093E80090E06115710551F4F9
:103E4000911108C08091E80082FF35C080E008959C
:103E5000BC01F2CF80917D028823C9F18530C9F180
:103E60008091E80083FD31C08091E80082FDEACFB7
:103E70008091E80080FFE1CF8091F3002091F20073
:103E8000382F6115710519F02830310558F091E08F
:103E90002830310509F090E08091E8008E7780931A
:103EA000E800CBCF84918093F10031966150710985
:103EB0002F5F3F4FE6CF80917D02882341F0853010
:103EC00041F08091E80083FFBDCF81E0089582E05A
:103ED000089583E00895982F973028F08F7080938D
:103EE000E90081E008959093E900242F762F50E0B7
:103EF000981731F07091EC002091ED005091F00096
:103F000021FD02C09F5FE8CF3091EB003E7F3093F0
:103F1000EB003091ED003D7F3093ED003091EB00F0
:103F200031603093EB007093EC002093ED005093E0
:103F3000F0002091EE0027FDE5CF80E0089580910C
:103F40007E0287FF13C08091E80082FF06C0809147
:103F5000E8008B778093E80004C080917D02811196
:103F6000F2CF089580917D028823D9F38091E800F3
:103F700080FFF8CF8091E8008E77ECCF2091E400AD
:103F80003091E50095E6A9012091EC00822F817027
:103F900020FF06C08091E80080FF06C080E0089501
:103FA0002091E80022FD1AC080917D02882389F0CB
:103FB000853089F08091EB0085FD0FC02091E400F1
:103FC0003091E50042175307F9F29150E1F684E091
:103FD000089582E0089583E0089581E008950E94A5
:103FE0005D200E946520E0EEF0E0808181608083AA
:103FF000E8EDF0E080818F77808319BCA7EDB0E019
:104000008C918E7F8C9380818F7E808310927C0236
:1040100008950F931F93CF93DF930E945D200E941A
:104020006520C8EDD0E088818F778883888180689B
:10403000888388818F7D888319BC10927D021092BD
:10404000790210927B0210927A0200EE10E0F801E1
:1040500080818B7F808388818160888342E060E0FB
:1040600080E00E946B1FE1EEF0E080818E7F808314
:10407000E2EEF0E0808181608083808188608083CF
:10408000F80180818E7F8083888180618883DF91C1
:10409000CF911F910F910895E8EDF0E080818F7E20
:1040A0008083E7EDF0E080818160808384E082BFDF
:1040B00081E080937C020C940920E8EDF0E080819F
:1040C0008E7F80831092E20008951092DA001092A1
:1040D000E10008951F920F920FB60F9211242F93B3
:1040E0003F934F935F936F937F938F939F93AF9380
:1040F000BF93EF93FF938091E10082FF0BC080910B
:10410000E20082FF07C08091E1008B7F8093E10095
:104110000E94D4228091DA0080FF19C08091D800DB
:1041200080FF15C08091DA008E7F8093DA00809145
:10413000D90080FF96C080E189BD82E189BD09B4C4
:1041400000FEFDCF81E080937D020E94D01C809113
:10415000E10080FF19C08091E20080FF15C08091CE
:10416000E2008E7F8093E2008091E2008061809384
:10417000E2008091D80080628093D80019BC85E06D
:1041800080937D020E94E21C8091E10084FF2BC09D
:104190008091E20084FF27C080E189BD82E189BD72
:1041A00089B5982F917080FFFBCF8091D8008F7DCB
:1041B0008093D8008091E1008F7E8093E100809110
:1041C000E2008F7E8093E2008091E2008160809324
:1041D000E20080917902882309F449C084E0809349
:1041E0007D020E94E31C8091E10083FF29C0809141
:1041F000E20083FF25C08091E100877F8093E1008A
:1042000082E080937D02109279028091E1008E7F9E
:104210008093E1008091E2008E7F8093E2008091A4
:10422000E20080618093E20042E060E080E00E9472
:104230006B1F8091F00088608093F0000E94E11C69
:10424000FF91EF91BF91AF919F918F917F916F916E
:104250005F914F913F912F910F900FBE0F901F9044
:10426000189519BC10927D020E94DE1C70CF8091BF
:10427000E30087FD93E090937D02B3CF1F920F92EE
:104280000FB60F9211242F933F934F935F936F9329
:104290007F938F939F93AF93BF93CF93DF93EF93CE
:1042A000FF93D091E900DF708091EC00C82FC170BE
:1042B00080FDC0E81092E9008091F000877F809334
:1042C000F00078940E9482211092E9008091F00021
:1042D00088608093F000CD2BCF70C093E900FF91F0
:1042E000EF91DF91CF91BF91AF919F918F917F918E
:1042F0006F915F914F913F912F910F900FBE0F9053
:104300001F9018951F93CF93DF93CDB7DEB7AA9771
:104310000FB6F894DEBF0FBECDBF8EE792E02091BE
:10432000F100FC012193CF01F2E086389F07B9F735
:104330000E94EF1C8091E80083FF1EC180917E02E5
:1043400090917F029A3008F017C1E92FF0E0E05811
:10435000FC4D0C940423803899F0823809F00CC18C
:10436000809182028F70873008F006C18093E90047
:104370008091EB0085FB882780F91092E90006C048
:1043800080917A0290917B02911182609091E80075
:10439000977F9093E8008093F1001092F100809154
:1043A000E8008E77E5C0882309F4D3C0823009F095
:1043B000E3C0809180028111D6C0809182028F700B
:1043C0002FEF280F263008F0D7C08093E900209106
:1043D000EB0020FFC8C0933031F48091EB00806285
:1043E0008093EB00C0C09091EB0090619093EB0044
:1043F00021E030E001C0220F8A95EAF72093EA001D
:104400001092EA008091EB008860EACF8111B4C07D
:10441000109180021F778091E3008078812B809338
:10442000E3008091E800877F8093E8000E949F1F4F
:104430008091E80080FFFCCF8091E300806880934A
:10444000E30082E0111183E080937D0295C08058E3
:10445000823008F091C080918002909181028C3D61
:1044600023E09207A1F583E08A838AE289834FB72C
:10447000F894DE01139620E03EE051E2E32FF0E0F5
:1044800050935700E49120FF03C0E295EF703F5F27
:10449000EF708E2F90E0EA30C0F0C7968D939D9319
:1044A0002F5F243159F74FBF8091E800877F8093B9
:1044B000E8006AE270E0CE0101960E94AE1E809193
:1044C000E8008B778093E80057C0C096E7CF6091F3
:1044D000820270918302AE014F5F5F4F0E94E91D1F
:1044E000BC01892B09F448C09091E800977F909314
:1044F000E80089819A810E940C1FE1CF8038E1F5A4
:104500008091E800877F8093E80080917902809312
:10451000F10045CF811130C090918002923060F55A
:104520008091E800877F8093E800909379020E9451
:104530009F1F80917902882311F084E005C080914B
:10454000E30087FDFACF81E080937D020E94E51CA5
:1045500013C080918002813079F481E0933009F0BA
:1045600080E080937B021092E9008091E800877FD1
:104570008093E8000E949F1F8091E80083FF0AC09B
:104580008091E800877F8093E8008091EB00806253
:104590008093EB00AA960FB6F894DEBF0FBECDBF96
:1045A000DF91CF911F9108950895CF9380917D025F
:1045B0008823A1F0C091E900CF709091EC00892F81
:1045C000817090FD80E8C82B1092E9008091E8008E
:1045D00083FD0E948221CF70C093E900CF9108959E
:1045E00097FB072E16F4009407D077FD09D00E94A0
:1045F0000A2307FC05D03EF4909581959F4F0895BE
:10460000709561957F4F0895EE0FFF1F0590F4910F
:10461000E02D0994AA1BBB1B51E107C0AA1FBB1FB9
:10462000A617B70710F0A61BB70B881F991F5A953E
:10463000A9F780959095BC01CD010895F999FECF19
:1046400092BD81BDF89A992780B50895A8E1B0E0A0
:1046500042E050E00C945223262FF999FECF92BDF0
:1046600081BDF89A019700B4021639F01FBA20BD37
:104670000FB6F894FA9AF99A0FBE08950396272F69
:104680000E942D230E942C23252F0E942D23242FAE
:104690000C942D230196272F0E942D230C942C235C
:1046A000DC01CB01FC01F999FECF06C0F2BDE1BDF2
:1046B000F89A319600B40D9241505040B8F70895E1
:1046C000F894FFCFCF0BCF0B270C270C790C950C50
:1046D000FC0BFC0BA00C2C0D3B0D3B0D970DFC0BAC
:1046E000FC0BA00D150E150E1E0E1E0E200E1E0E1E
:1046F0001E0E1E0E150E150E250E1E0E1E0E250E5E
:10470000AB21D321BC22D321BC2206222722BC22EA
:044710007E228A2259
:1047140001A10100A20106A20131022808641E14AD
:104724000A321E441CA31C821C7E1C7A1C01E2005B
:10473400E900EA00B500B600B700CD008301CC0063
:104744008A019201940121022302240225022602F5
:1047540027022A02B300B4006F00700081828394A0
:104764006697C63435F6F731333236000000000060
:1047740000E200E900EA00B500B600B700CD00830E
:1047840001CC008A01920194012102230224022512
:1047940002260227022A02B300B4006F00700081CF
:0C47A400828301020304050607080900D7
:00000001FF
